:100000000C9412020C943A020C943A020C943A02A8
:100010000C943A020C943A020C943A020C943A0270
:100020000C943A020C943A020C94D60C0C94880B63
:100030000C943A020C943A020C943A020C943A0250
:100040000C943A020C943A020C943A020C943A0240
:100050000C943A020C943A020C943A020C947805EF
:100060000C943A020C943A020C943A020C943A0220
:100070000C943A020C943A020C943A020C943A0210
:100080000C943A020C943A020C943A020C943A0200
:100090000C943A020C943A020C943A020C943A02F0
:1000A0000C943A020C943A020C943A02005EBCE2C0
:1000B000613FDD83C29C7E20A3FD1F419DC3217F44
:1000C000FCA2401E5F01E3BD3E6082DC237D9FC138
:1000D000421CFEA0E1BF5D0380DE3C62BEE0025C2C
:1000E000DF81633D7C22C09E1D43A1FF4618FAA418
:1000F00027799BC584DA3866E5BB5907DB85673904
:10010000BAE406581947A5FB7826C49A653BD987F7
:10011000045AB8E6A7F91B45C6987A24F8A6441AEB
:1001200099C7257B3A6486D85B05E7B98CD2306ED7
:10013000EDB3510F4E10F2AC2F7193CD114FADF3C3
:10014000702ECC92D38D6F31B2EC0E50AFF1134DB7
:10015000CE90722C6D33D18F0C52B0EE326C8ED0AB
:10016000530DEFB1F0AE4C1291CF2D73CA94762897
:10017000ABF517490856B4EA6937D58B5709EBB583
:1001800036688AD495CB2977F4AA4816E9B7550B77
:1001900088D6346A2B7597C94A14F6A8742AC8966B
:1001A000154BA9F7B6E80A54D7896B350408020144
:1001B00010408040102040804080080204018040B0
:1001C00020100201108010204040040404040403A5
:1001D00004050202020204030202020206060606E7
:1001E00006060404020202040000000023002600A8
:1001F00029002C002F0000000000250028002B0003
:100200002E00310000000000240027002A002D00ED
:100210003000080B00020202010009040000010284
:10022000020000052400100105240101010424023C
:10023000060524060001070581031000400904019A
:1002400000020A00000007050202400000070583C3
:100250000240000000C18081C112010002020000C2
:10026000404123418000010102000112010002000F
:1002700000004041234180000101020001180341B8
:100280000072006400750069006E006F0020004C71
:10029000004C004300220355005300420020004957
:1002A000004F00200042006F0061007200640020D7
:1002B00000200020002000040309040000000000CA
:1002C0000000002A2B2800000000000000000000B1
:1002D00000000000000000000000002C9EB4A0A15F
:1002E000A2A434A6A7A5AE362D3738271E1F20217D
:1002F0002223242526B333B62EB7B89F848586875C
:1003000088898A8B8C8D8E8F9091929394959697F5
:1003100098999A9B9C9D2F3130A3AD350405060713
:1003200008090A0B0C0D0E0F1011121314151617D5
:1003300018191A1B1C1DAFB1B0B500090402000149
:100340000300000009210101000122C90007058402
:100350000340000105010902A1010901A100850175
:10036000050919012903150025019503750181026D
:100370009501750581030501093009310938158199
:10038000257F750895038106C0C005010906A101F6
:100390008502050719E029E7150025017501950873
:1003A000810295017508810395067508150025657C
:1003B0000507190029658100C0050C0901A1018507
:1003C000041500250109E909EA750195028106096C
:1003D000E29501810609B09501810609B195018177
:1003E0000609B79501810609B59501810609B695FB
:1003F00001810609B39501810609B495018106952D
:10040000068107C0050C0901A101850519002A3CD8
:10041000021500263C02950175108100C00085027E
:10042000A8076B0E11241FBECFEFDAE0DEBFCDBFF1
:1004300011E0A0E0B1E0E2EDF1E202C005900D9222
:10044000A637B107D9F722E0A6E7B1E001C01D92B7
:10045000A830B207E1F714E0C4E2D4E004C0229768
:10046000FE010E94CF10CE31D107C9F70E94BF070D
:100470000C94E7100C94000060E072EC80EA91E0CC
:100480000E94A70762E471E080EA91E00E942B08D5
:100490006AE071E080EA91E00C942B08CF92DF9241
:1004A000EF92FF9286E791E00E947B0360E070E0AC
:1004B00086E791E00E940C046B017C0165E371E02A
:1004C00080EA91E00E940E0822E030E0B701A60128
:1004D00080EA91E00E94CB0920E030E04AEA52E451
:1004E000C701B6010E94DD0E8823E1F220E030E072
:1004F0004EEF52ECC701B6010E94DD0E882391F247
:10050000FF90EF90DF90CF90089562E089E891E04E
:100510000E94490569E871E086E791E00C94910238
:100520000895FC0180E992E0928B818B768365834C
:100530001482108289E0818381E08283838308951D
:10054000CF92DF92EF92FF920F931F93CF93DF939F
:1005500000D0CDB7DEB76C01F42EE52EFC0185810D
:10056000968169837A830E94100469817A81882345
:1005700011F1F601858196810E940B0540E06EEB3A
:10058000F601858196810E94AD040F2D1E2D89E014
:10059000F82EF601858196810E94EF04F80181937F
:1005A0008F01FA94B1F7F601858196810E941004BB
:1005B00091E0813009F090E0892F0F900F90DF914A
:1005C000CF911F910F91FF90EF90DF90CF90089502
:1005D000CF93DF93EA010E94A002882351F068E0E4
:1005E000CE010E946C0591E02885821390E0892F4E
:1005F00001C080E0DF91CF910895CF93DF93CDB715
:10060000DEB729970FB6F894DEBF0FBECDBFAE019F
:100610004F5F5F4F0E94A00281E09981911101C05C
:1006200080E029960FB6F894DEBF0FBECDBFDF91F4
:10063000CF9108958F929F92AF92BF92CF92DF9207
:10064000EF92FF920F931F93CF93DF93EC018A01F8
:100650006950633048F4E62FF0E0EE0FFF1FED5BCA
:10066000FE4F8080918004C09EEE892E92E0992EEC
:100670000115110501F18B818823E9F08881811131
:100680001AC00E94C2056B017C01AA2497FCA094A9
:10069000BA2CB801CE010E94FD0281111FC00E9438
:1006A000C205681979098A099B096C157D058E05B3
:1006B0009F05A0F4EECFB401882777FD8095982F91
:1006C000DF91CF911F910F91FF90EF90DF90CF902E
:1006D000BF90AF909F908F900C94F105DF91CF91D8
:1006E0001F910F91FF90EF90DF90CF90BF90AF9050
:1006F0009F908F900895CF93DF93EC018D819E8121
:100700000E9410048D819E810E943305488164E41B
:100710008D819E810E94AD048A81882341F040E052
:1007200050E06981CE01DF91CF910C941A03DF91E3
:10073000CF910895FA01208148E0249F900111246F
:10074000818190E0982F8827990F990F990F282B76
:10075000392BDB018C918031C1F4678170E0868197
:10076000AB01481B5109CA019695982F8827979588
:1007700087950E94971060517109207F53E0220FE6
:10078000331F5A95E1F7260F371FC9010895EF92DD
:10079000FF920F931F93CF93DF93CDB7DEB72997C7
:1007A0000FB6F894DEBF0FBECDBF8C017B01AE014A
:1007B0004F5F5F4F0E94E802882341F0AE014F5F18
:1007C0005F4FB701C8010E949A0302C080E894EE0F
:1007D00029960FB6F894DEBF0FBECDBFDF91CF9143
:1007E0001F910F91FF90EF900895813824EE9207AA
:1007F00074F0BC01882777FD8095982F0E947C0FAC
:1008000020E030E040E05CE30E943010089560E0BA
:1008100070E08EEF92EC08950E94C7030C94F503EC
:10082000FF920F931F93CF93DF93FC010081C1814F
:10083000D281F8948981F02EF0948F218983789465
:100840001DE7115029F182E090E00E94170688818F
:100850008023B9F3F8948A818F218A838981802B40
:100860008983789480EE91E00E941706F89489813C
:100870008F21898386E490E00E9417068881802377
:1008800011E009F010E078948AE991E00E941706DF
:10089000812FDF91CF911F910F91FF9008951F93AA
:1008A000CF93DF93FC011081C181D281912F90956C
:1008B00060FF12C0F8948A8189238A838981812B01
:1008C00089838AE090E00E9417068A81812B8A83BF
:1008D000789487E390E011C0F8948A8189238A8311
:1008E0008981812B898381E490E00E9417068A81A7
:1008F000812B8A83789485E090E0DF91CF911F91DE
:100900000C9417060F931F93CF93DF93FC01108174
:10091000C181D281F8948981812B89838A81012FB9
:10092000009580238A8383E090E00E9417068981E6
:10093000802389838AE090E00E941706C88178941A
:1009400085E390E00E9417061C2381E009F480E013
:10095000DF91CF911F910F910895CF92DF92EF9287
:10096000FF920F931F93CF93DF931F92CDB7DEB704
:100970006C01E62E08E010E0FF24F39461E09F2D67
:100980009E2109F460E0C60149830E944F04FF0CD8
:100990000150110949810115110581F7411115C057
:1009A000F894D6011196ED91FC91129791818C915A
:1009B0008095892381831196ED91FC911297928104
:1009C0008C9180958923828378940F90DF91CF91C9
:1009D0001F910F91FF90EF90DF90CF900895EF92CD
:1009E000FF920F931F93CF93DF938C01C8E0D0E069
:1009F000F12CEE24E394C8010E9482048111FE28A8
:100A0000EE0C2197C1F78F2DDF91CF911F910F91A0
:100A1000FF90EF900895CF92DF92FF920F931F9374
:100A2000CF93DF931F92CDB7DEB78C01F62E40E057
:100A300065E579830E94AD04CF2C7981D72E88E0BB
:100A4000F82EF60161916F0140E0C8010E94AD04EB
:100A5000FA94B9F70F90DF91CF911F910F91FF900A
:100A6000DF90CF90089540E06CEC0C94AD04FC0155
:100A700013861586148627E030E0DF01A20FB31F2E
:100A800013961C922115310519F021503109F5CF2B
:100A900008951F93CF93DF93EC01162F60E0812F11
:100AA0000E947706612F70E0FB01E455FE4FE49150
:100AB000E883FB01E653FE4FE491F0E0EE0FFF1FE9
:100AC000E851FE4F859194919A838983CE01DF91FD
:100AD000CF911F910C943705DC0180E0615038F014
:100AE000ED91E827F0E0E455FF4F8491F7CF0895AA
:100AF0001F920F920FB60F9211242F933F938F9353
:100B00009F93AF93BF938091980190919901A09189
:100B10009A01B0919B013091970123E0230F2D376B
:100B200020F40196A11DB11D05C026E8230F0296F1
:100B3000A11DB11D20939701809398019093990175
:100B4000A0939A01B0939B0180919C0190919D018B
:100B5000A0919E01B0919F010196A11DB11D8093AE
:100B60009C0190939D01A0939E01B0939F01BF9122
:100B7000AF919F918F913F912F910F900FBE0F904A
:100B80001F9018952FB7F894609198017091990172
:100B900080919A0190919B012FBF08953FB7F894DF
:100BA00080919C0190919D01A0919E01B0919F0127
:100BB00026B5A89B05C02F3F19F00196A11DB11DB8
:100BC0003FBF6627782F892F9A2F620F711D811DD5
:100BD000911D42E0660F771F881F991F4A95D1F734
:100BE0000895CF92DF92EF92FF92CF93DF936B0144
:100BF0007C010E94CE05EB01C114D104E104F10493
:100C000079F00E94CE056C1B7D0B683E7340A0F30B
:100C100081E0C81AD108E108F108C851DC4FECCFD7
:100C2000DF91CF91FF90EF90DF90CF9008950197E3
:100C300039F0880F991F880F991F02970197F1F7D4
:100C40000895789484B5826084BD84B5816084BD44
:100C500085B5826085BD85B5816085BDEEE6F0E035
:100C6000808181608083E1E8F0E010828081826091
:100C70008083808181608083E0E8F0E08081816012
:100C80008083E1E9F0E080818260808380818160FF
:100C90008083E0E9F0E0808181608083E1ECF0E036
:100CA0008081846080838081826080838081816094
:100CB0008083E3ECF0E0808181608083E0ECF0E011
:100CC000808182608083E2ECF0E0808181608083BB
:100CD000EAE7F0E0808184608083808182608083A5
:100CE0008081816080838081806880830895CF9334
:100CF000DF9390E0FC01E455FE4F2491FC01E653A4
:100D0000FE4F8491882349F190E0880F991FFC01E0
:100D1000EC5FFD4FA591B4918A509E4FFC01C591A7
:100D2000D4919FB7611108C0F8948C9120958223CB
:100D30008C93888182230AC0623051F4F8948C919C
:100D4000322F309583238C938881822B888304C033
:100D5000F8948C91822B8C939FBFDF91CF91089553
:100D60008091EE019091EF012091F0013091F1011D
:100D7000821B930B8F73992708952091EE01309178
:100D8000EF018091F0019091F1012817390749F0A6
:100D9000E091F001F091F101E255FE4F808190E089
:100DA00008958FEF9FEF08952091EE013091EF01AC
:100DB0008091F0019091F10128173907A9F0E09195
:100DC000F001F091F101E255FE4F80812091F00198
:100DD0003091F1012F5F3F4F2F7333273093F10193
:100DE0002093F00190E008958FEF9FEF0895CF9347
:100DF000DF93C091EE01D091EF012196CF73DD27F3
:100E00008091F0019091F101C817D90799F082E023
:100E10000E944A0A8F3F2FEF920761F0E091EE01A6
:100E2000F091EF01E255FE4F8083D093EF01C09324
:100E3000EE01DFCFDF91CF91089583E00C94AE0CEB
:100E40000F931F93CF93DF931F92CDB7DEB78C0123
:100E5000698380910701882359F041E050E0BE0189
:100E60006F5F7F4F83E00E947B0A181619063CF0E3
:100E700081E090E0F8019383828380E090E00F901E
:100E8000DF91CF911F910F910895FC0120812E5F7A
:100E9000208342E450E062E172E080E80C94160B9B
:100EA000FC0181819081913A59F4813209F04BC063
:100EB00047E050E060E071E080E00E94160B45C022
:100EC000913209F040C0803239F467E070E080E090
:100ED00091E00E945A0B39C0823209F034C08281FD
:100EE000809307018091000190910101A09102017E
:100EF000B0910301803B9440A105B10531F580918B
:100F0000070180FD12C087E797E79093010880935F
:100F100000082BE088E190E00FB6F894A895809344
:100F200060000FBE2093600010C088E10FB6F894F7
:100F300080936000109260000FBEA8951092010887
:100F40001092000802C080E0089581E0089508959D
:100F50001092A3011092A20188EE93E0A0E0B0E00D
:100F60008093A4019093A501A093A601B093A7013B
:100F70008DE491E09093A1018093A00108950E94D7
:100F8000210682EF91E00E94B80C0E943C02C0E072
:100F9000D0E00E944E022097E1F30E940000F9CFBA
:100FA000CF92DF92EF92FF920F931F93CF93DF9335
:100FB0006C017A01EB01E60EF71E00E010E0CE15A1
:100FC000DF0561F06991D601ED91FC910190F0810E
:100FD000E02DC6010995080F191FF1CFC801DF9157
:100FE000CF911F910F91FF90EF90DF90CF900895D8
:100FF0006115710581F0DB010D900020E9F7AD016D
:1010000041505109461B570BDC01ED91FC910280C8
:10101000F381E02D099480E090E008950C94F807A6
:10102000DC01ED91FC910190F081E02D09940F938A
:101030001F93CF93DF93EC016DE00E9410088C01A9
:101040006AE0CE010E941008800F911FDF91CF91BE
:101050001F910F9108950F931F93CF93DF93EC018E
:101060000E94F8078C01CE010E941708800F911F83
:10107000DF91CF911F910F9108958F929F92AF9220
:10108000BF92CF92DF92EF92FF920F931F93CF9375
:10109000DF93CDB7DEB7A1970FB6F894DEBF0FBED2
:1010A000CDBF7C01C42EE52FCB01D22E19A221E0A9
:1010B0002D1510F02AE0D22E8E010F5D1F4F8D2CC2
:1010C000912CA12CB12C6C2D7E2FA50194010E9496
:1010D000AB108C2DD29E80191124015011098A3039
:1010E00014F4805D01C0895CF8018083211531050D
:1010F0004105510521F0C22EE32FCA01E4CFB8010A
:10110000C7010E94F807A1960FB6F894DEBF0FBE84
:10111000CDBFDF91CF911F910F91FF90EF90DF90A6
:10112000CF90BF90AF909F908F900895CF92DF9215
:10113000EF92FF920F931F93CF93DF93EC016A011D
:101140007B012115310579F4E881F9810190F08165
:10115000E02D642FDF91CF911F910F91FF90EF90C1
:10116000DF90CF9009942A303105E9F477FF1AC057
:101170006DE20E9410088C0144275527BA014C19D2
:101180005D096E097F092AE0CE010E943D08800FAB
:10119000911FDF91CF911F910F91FF90EF90DF9002
:1011A000CF9008952AE0B701A601CE01DF91CF913B
:1011B0001F910F91FF90EF90DF90CF900C943D081E
:1011C0004F925F926F927F928F929F92AF92BF9257
:1011D000CF92DF92EF92FF920F931F93CF93DF9303
:1011E000EC016A017B01B22E9A01AB01C701B60185
:1011F0000E949310882319F06BE571E027C0260147
:101200003701E89477F82FEF3FEF4FE75FE7C3012F
:10121000B2010E94931081110DC02FEF3FEF4FE7F5
:101220005FE7C301B2010E94DD0E18161CF46FE5E2
:1012300071E00CC02FEF3FEF4FE75FE4C701B6014D
:101240000E942C101816ACF463E671E0CE01DF9119
:10125000CF911F910F91FF90EF90DF90CF90BF90B3
:10126000AF909F908F907F906F905F904F900C9475
:10127000F8072FEF3FEF4FE75FECC701B6010E9481
:10128000DD0E87FDE1CF20E030E0A901C701B60106
:101290000E94DD0E87FF0AC06DE2CE010E94100899
:1012A0008C01F7FAF094F7F8F09402C000E010E037
:1012B000A12C60E070E080E09FE3AB1441F020E0FF
:1012C00030E040E251E40E94E10EA394F6CF9B018E
:1012D000AC01C701B6010E94790E6B017C010E942E
:1012E0004E0F2B013C010E947A0F9B01AC01C701FC
:1012F000B6010E94780E6B017C012AE0B301A201C5
:10130000CE010E943D08080F191FBB2039F063E38E
:1013100071E0CE010E94F807080F191F7B2C77207F
:1013200041F120E030E040E251E4C701B6010E9403
:1013300030106B017C010E94490F4B01AA2497FCDD
:10134000A094BA2C2AE030E0B501A401CE010E949D
:101350009608080F191FC501B4010E947C0F9B015C
:10136000AC01C701B6010E94780E6B017C017A9432
:10137000D6CFC801DF91CF911F910F91FF90EF90D1
:10138000DF90CF90BF90AF909F908F907F906F90A5
:101390005F904F9008950F931F93CF93DF93EC01CD
:1013A0000E94E0088C01CE010E941708800F911F57
:1013B000DF91CF911F910F910895615030F02091EE
:1013C000F100FC0120830196F8CF289884E68093F1
:1013D000F90108952FB7FC012083F894677060939A
:1013E000E9000895CF93DF931F92CDB7DEB7682F42
:1013F000CE0101960E94EA098091F20099819FBF77
:101400000F90DF91CF910895FF920F931F93CF9389
:10141000DF9300D0CDB7DEB7F62E8A019091F801A8
:10142000992311F057FF03C08FEF9FEF2BC0682F58
:10143000CE0101967A830E94EA098091F20090E041
:10144000A8017A81801791070CF4AC01EF2DF72FDA
:10145000F40E84E6FE1639F028988093F9019091F5
:10146000F1009193F7CF4115510521F08091F200E1
:10147000882321F089818FBFCA0104C08BE6809345
:10148000E800F8CF0F900F90DF91CF911F910F914F
:10149000FF900895CF93DF931F92CDB7DEB741E061
:1014A00050E0BE016F5F7F4F0E94040A019719F45C
:1014B000898190E002C08FEF9FEF0F90DF91CF9175
:1014C0000895CF93DF931F92CDB7DEB7682FCE017B
:1014D00001960E94EA099091E800892F807295FF99
:1014E00004C09091F20080E4891B99819FBF0F9006
:1014F000DF91CF9108954F925F926F927F928F927A
:101500009F92AF92BF92CF92DF92EF92FF920F9392
:101510001F93CF93DF931F92CDB7DEB7582E7B0179
:10152000A42E952E8091F801882369F0042F152FA1
:101530008AEFB82E852D8072782E9AE3892E852D1C
:101540008074682E11C08FEF9FEF53C0852D0E94CD
:10155000610A482E81110CC0BA94A9F361E070E0D1
:1015600080E090E00E94F1050115110579F737C080
:10157000282F30E0021713070CF4402EC42CD12C76
:101580000C191D09652DCE0101960E94EA097720EC
:1015900039F04A948FEF4816B1F01092F100F9CF6C
:1015A000F701842D57FE07C0815058F09491909315
:1015B000F1003196F9CF815020F091919093F10094
:1015C000FACFEC0CFD1C8091E80085FF0FC00115DF
:1015D000110511F461100AC089818FBFC5CF5D98D4
:1015E00084E68093FA018A2D992D03C08092E80049
:1015F000F3CF0F90DF91CF911F910F91FF90EF905C
:10160000DF90CF90BF90AF909F908F907F906F9022
:101610005F904F9008951092E9001092F701109298
:10162000F6019093F5018093F4010895CF93DF9331
:10163000FB0120E030E0DEEF24173507A1F187FF42
:1016400002C0C49101C0C081A091F601B091F70120
:101650006091F4017091F501A617B707B4F4909169
:10166000E8009570E1F39091E80092FD1EC0C093F0
:10167000F1006091F6017091F7016F5F7F4F6F731A
:101680007727672B11F4D093E8006091F6017091F1
:10169000F7016F5F7F4F7093F7016093F6012F5F43
:1016A0003F4F3196C9CFC90102C08FEF9FEFDF9145
:1016B000CF9108951F93CF93DF931F92CDB7DEB7DD
:1016C000162F2091E80022FFFCCF612F79830E9422
:1016D000DD098BEF8093E800812F7981972F0F90A0
:1016E000DF91CF911F910895CF93DF931F92CDB7D4
:1016F000DEB71982CE0101960E944507CE01019600
:101700000E94530D898190E00F90DF91CF91089551
:101710001F920F920FB60F921124EF92FF920F9328
:101720001F932F933F934F935F936F937F938F9369
:101730009F93AF93BF93EF93FF93CF93DF93CDB777
:10174000DEB76297DEBFCDBF1092E9008091E8005E
:1017500083FFE7C068E0CE010A960E94DD0982EFB0
:101760008093E8009A8597FF05C08091E80080FF8C
:10177000FCCF03C08EEF8093E800892F807609F0BC
:10178000B5C08B85811105C01092F1001092F10057
:10179000C1C0282F2D7F213009F4BCC0853049F409
:1017A0008091E80080FFFCCF8C8580688093E30007
:1017B000B1C0863009F072C02D85E888F9882230E2
:1017C00071F580E090E02A8B0E940B0B0E94740B55
:1017D00099E08E010F5F1F4FF801392F11923A9552
:1017E000E9F799832A892A8391E09E8390E8988774
:1017F0009AEF99872091F6013091F701275F3F4FCB
:101800003C832B838D83C7010E940B0B49E050E082
:10181000B80180E00E94160B0E94740B7BC0C701C8
:101820002A8B0E940B0B2A89223241F482E290E03B
:101830000E945E0D892B09F06DC070C0213069F4E3
:1018400088899989089711F42093F3018091F30115
:10185000882389F069E572E016C0233009F05EC084
:101860008C85882359F0823061F0813009F056C0B0
:101870006DE772E008C06BE672E005C067EB72E0EE
:1018800002C065E972E06115710509F447C0FB010A
:10189000449150E080E80E94160B3CC0873009F468
:1018A0003DC0883021F481E08093F10033C089305D
:1018B00089F5937099F5E5E5F2E081E021E096E3A2
:1018C0008093E9002093EB0034913093EC009093E7
:1018D000ED008F5F3196853099F78EE78093EA00AF
:1018E0001092EA008C858093F80114C08889998948
:1018F0000E940B0B8E85811105C0CE010A960E94B5
:10190000500706C0823051F4CE010A960E94860D1F
:10191000882321F08EEF8093E80003C081E280935A
:10192000EB0062960FB6F894DEBF0FBECDBFDF911D
:10193000CF91FF91EF91BF91AF919F918F917F9147
:101940006F915F914F913F912F911F910F91FF9058
:10195000EF900F900FBE0F901F9018958093E900A5
:101960008091F200882319F08AE38093E8000895BB
:101970001092F80181E08093D70080EA8093D8002C
:1019800082E189BD09B400FEFDCF61E070E080E036
:1019900090E00E94F10580E98093D8008CE080936C
:1019A000E2001092E000559A209A08951F920F923B
:1019B0000FB60F9211242F933F934F935F936F9322
:1019C0007F938F939F93AF93BF93EF93FF938091F8
:1019D000E1001092E10083FF0FC01092E90091E056
:1019E0009093EB001092EC0092E39093ED00109234
:1019F000F80198E09093F00082FF26C083E00E94F7
:101A0000AE0C82E00E94F209882321F080EA91E086
:101A10000E94F7068091FA01882339F08091FA013B
:101A200081508093FA01882369F08091F90188231D
:101A300059F08091F90181508093F901811104C01E
:101A4000289A02C05D9AF1CFFF91EF91BF91AF91BB
:101A50009F918F917F916F915F914F913F912F91C6
:101A60000F900FBE0F901F901895FF920F931F932A
:101A7000CF93DF93EC01F62EE881F9810480F581A4
:101A8000E02D09958C01E881F9810680F781E02D30
:101A90006F2DCE010995C8019927DF91CF911F9134
:101AA0000F91FF900895FC0120812F5F208349E171
:101AB00050E06BE373E080E80C94160B49EC50E0C7
:101AC00064E573E080E80C94160BEF92FF920F939D
:101AD0001F93CF93DF931F92CDB7DEB789838B011E
:101AE0007A0141E050E0BE016F5F7F4F84E00E94C9
:101AF0007B0AA701B80184E40E947B0A0F90DF9162
:101B0000CF911F910F91FF90EF900895FC0191816B
:101B10008081813A31F481E0913091F0933089F401
:101B200011C0813271F49B3021F4828180930901CC
:101B300005C09A3031F482818093080181E00895D4
:101B4000089580E0089548E050E082E00C94650D2F
:101B5000CF93DF93DC01683818F0E8E7E60F25C083
:101B6000E62FF0E067FF11C0E058F10981E090E056
:101B700001C0880FEA95EAF714969C911497982B68
:101B800014969C931497E0E010C0E554FD4FE49147
:101B9000EE2309F440C0E7FF08C014968C91149717
:101BA000826014968C931497EF7716968C91169703
:101BB0008E1741F117968C9117978E1719F1189679
:101BC0008C9118978E17F1F019968C9119978E17A2
:101BD000C9F01A968C911A978E17A1F01B968C91CA
:101BE0001B978E1779F080E090E0ED01C80FD91FA8
:101BF0002E81211102C0EE8305C001968630910529
:101C0000A1F709C0BD016C5F7F4FCD010E94A30DFC
:101C100081E090E008C081E090E013969C938E9361
:101C2000129780E090E0DF91CF910895683818F026
:101C3000E8E7E60F25C0E62FF0E067FF12C0E058A6
:101C4000F10921E030E001C0220FEA95EAF7209582
:101C5000DC0114963C911497322314963C93E0E0F7
:101C60000FC0E554FD4FE491EE2329F1E7FF08C0D2
:101C7000DC0114962C9114972D7F14962C93EF77FA
:101C800020E030E0EE2351F0DC01A20FB31F1696E6
:101C90004C9116974E1302C016961C922F5F3F4F21
:101CA0002630310579F7BC016C5F7F4F0E94A30D90
:101CB00081E090E0089580E090E00895FC011682B4
:101CC000178210861186128613861482BC016C5FFF
:101CD0007F4F0C94A30D109207021092FE011092F8
:101CE000FD018BE691E09093FC018093FB01089548
:101CF0005058BB27AA270ED075C166D130F06BD1E2
:101D000020F031F49F3F11F41EF45BC10EF4E09516
:101D1000E7FB51C1E92F77D180F3BA176207730748
:101D20008407950718F071F49EF58FC10EF4E095C5
:101D30000B2EBA2FA02D0B01B90190010C01CA0185
:101D4000A0011124FF27591B99F0593F50F4503E30
:101D500068F11A16F040A22F232F342F4427585F22
:101D6000F3CF469537952795A795F0405395C9F73A
:101D70007EF41F16BA0B620B730B840BBAF09150F2
:101D8000A1F0FF0FBB1F661F771F881FC2F70EC091
:101D9000BA0F621F731F841F48F487957795679564
:101DA000B795F7959E3F08F0B3CF9395880F08F04D
:101DB0009927EE0F979587950895D9D008F481E07B
:101DC00008950CD00FC107D140F0FED030F021F4BF
:101DD0005F3F19F0F0C0511139C1F3C014D198F32D
:101DE0009923C9F35523B1F3951B550BBB27AA279C
:101DF00062177307840738F09F5F5F4F220F331F0E
:101E0000441FAA1FA9F333D00E2E3AF0E0E830D0D9
:101E100091505040E695001CCAF729D0FE2F27D0DC
:101E2000660F771F881FBB1F261737074807AB07AA
:101E3000B0E809F0BB0B802DBF01FF2793585F4F1F
:101E40002AF09E3F510568F0B6C000C15F3FECF339
:101E5000983EDCF3869577956795B795F7959F5FE4
:101E6000C9F7880F911D9695879597F90895E1E038
:101E7000660F771F881FBB1F621773078407BA0797
:101E800020F0621B730B840BBA0BEE1F88F7E095F2
:101E9000089504D06894B111D9C00895BCD088F0D9
:101EA0009F5790F0B92F9927B751A0F0D1F0660F46
:101EB000771F881F991F1AF0BA95C9F712C0B13061
:101EC00081F0C3D0B1E00895C0C0672F782F882774
:101ED000B85F39F0B93FCCF3869577956795B395A0
:101EE000D9F73EF490958095709561957F4F8F4F0F
:101EF0009F4F0895E89409C097FB3EF49095809514
:101F0000709561957F4F8F4F9F4F9923A9F0F92FBF
:101F100096E9BB279395F695879577956795B7953D
:101F2000F111F8CFFAF4BB0F11F460FF1BC06F5F23
:101F30007F4F8F4F9F4F16C0882311F096E911C035
:101F4000772321F09EE8872F762F05C0662371F056
:101F500096E8862F70E060E02AF09A95660F771F6A
:101F6000881FDAF7880F9695879597F90895990F46
:101F70000008550FAA0BE0E8FEEF16161706E80753
:101F8000F907C0F012161306E407F50798F0621B74
:101F9000730B840B950B39F40A2661F0232B242B49
:101FA000252B21F408950A2609F4A140A6958FEF68
:101FB000811D811D089597F99F6780E870E060E0BA
:101FC00008959FEF80EC089500240A9416161706D2
:101FD00018060906089500240A941216130614061A
:101FE00005060895092E0394000C11F4882352F07D
:101FF000BB0F40F4BF2B11F460FF04C06F5F7F4F35
:102000008F4F9F4F089557FD9058440F551F59F01B
:102010005F3F71F04795880F97FB991F61F09F3FD5
:1020200079F087950895121613061406551FF2CFFE
:102030004695F1DF08C0161617061806991FF1CF4E
:1020400086957105610508940895E894BB27662775
:102050007727CB0197F908958ADF08F48FEF089569
:102060000BD0C0CFB1DF28F0B6DF18F0952309F010
:10207000A2CFA7CF1124EACFC6DFA0F3959FD1F35B
:10208000950F50E0551F629FF001729FBB27F00D26
:10209000B11D639FAA27F00DB11DAA1F649F66277B
:1020A000B00DA11D661F829F2227B00DA11D621FCA
:1020B000739FB00DA11D621F839FA00D611D221F84
:1020C000749F3327A00D611D231F849F600D211D68
:1020D000822F762F6A2F11249F5750408AF0E1F00B
:1020E00088234AF0EE0FFF1FBB1F661F771F881F54
:1020F00091505040A9F79E3F510570F05CCFA6CF9C
:102100005F3FECF3983EDCF3869577956795B7953E
:10211000F795E7959F5FC1F7FE2B880F911D969568
:10212000879597F9089523DF880B990B089597FBFE
:10213000072E16F4009407D077FD09D00E94D31023
:1021400007FC05D03EF4909581959F4F08957095BA
:1021500061957F4F0895A1E21A2EAA1BBB1BFD01BA
:102160000DC0AA1FBB1FEE1FFF1FA217B307E40776
:10217000F50720F0A21BB30BE40BF50B661F771FCE
:10218000881F991F1A9469F76095709580959095AE
:102190009B01AC01BD01CF010895EE0FFF1F05901B
:1021A000F491E02D0994AA1BBB1B51E107C0AA1FA3
:1021B000BB1FA617B70710F0A61BB70B881F991FE8
:1021C0005A95A9F780959095BC01CD010895F89492
:0221D000FFCF3F
:1021D20000E100000000000001012A494F45535070
:1021E2002D536C617665204669726D776172652048
:1021F2005374617274202D2048656C6C6F20776F68
:10220200726C642E0054656D7065726174757265CE
:102212003A20005E00BC007701000000002007D0D9
:1022220007B006D406BD061D07F7066E616E00698B
:102232006E66006F76660000000000350DD007A8BC
:062242000D160E5E0E00F9
:00000001FF
