:100000000C946E040C9496040C9496040C94960430
:100010000C9496040C9496040C9496040C949604F8
:100020000C9496040C9496040C94BF210C947120AB
:100030000C9496040C9496040C9496040C949604D8
:100040000C9496040C9496040C9496040C949604C8
:100050000C9496040C9496040C9496040C94E71952
:100060000C9496040C9496040C9496040C949604A8
:100070000C9496040C9496040C9496040C94960498
:100080000C9496040C9496040C9496040C94960488
:100090000C9496040C9496040C9496040C94960478
:1000A0000C9496040C9496040C949604F01AF31A8B
:1000B000E61AEA1A141B141B141BF71AFB1AFF1A70
:1000C000051B091B141B0F1B00000000003E5B4FAB
:1000D0005B3E3E6B4F6B3E1C3E7C3E1C183C7E3CA8
:1000E000181C577D571C1C5E7F5E1C00183C1800B6
:1000F000FFE7C3E7FF0018241800FFE7DBE7FF3046
:10010000483A060E2629792926407F050507407FB3
:1001100005253F5A3CE73C5A7F3E1C1C08081C1C26
:100120003E7F14227F22145F5F005F5F06097F011C
:100130007F006689956A606060606094A2FFA29407
:1001400008047E040810207E201008082A1C0808D5
:100150001C2A08081E101010100C1E0C1E0C303823
:100160003E3830060E3E0E06000000000000005F24
:1001700000000007000700147F147F14242A7F2A40
:100180001223130864623649562050000807030002
:10019000001C2241000041221C002A1C7F1C2A084E
:1001A000083E0808008070300008080808080000B1
:1001B00060600020100804023E5149453E00427F25
:1001C000400072494949462141494D331814127F74
:1001D0001027454545393C4A494931412111090714
:1001E0003649494936464949291E00001400000095
:1001F0004034000000081422411414141414004167
:1002000022140802015909063E415D594E7C121123
:10021000127C7F494949363E414141227F4141415B
:100220003E7F494949417F090909013E41415173D6
:100230007F0808087F00417F41002040413F017F47
:10024000081422417F404040407F021C027F7F040F
:1002500008107F3E4141413E7F090909063E415158
:10026000215E7F09192946264949493203017F0148
:10027000033F4040403F1F2040201F3F4038403F49
:10028000631408146303047804036159494D43005F
:100290007F4141410204081020004141417F040296
:1002A000010204404040404000030708002054542D
:1002B00078407F284444383844444428384444280B
:1002C0007F385454541800087E090218A4A49C785E
:1002D0007F0804047800447D40002040403D007FBA
:1002E0001028440000417F40007C047804787C089A
:1002F0000404783844444438FC182424181824246E
:1003000018FC7C08040408485454542404043F4452
:10031000243C4040207C1C2040201C3C4030403C81
:1003200044281028444C9090907C4464544C4400E1
:100330000836410000007700000041360800020145
:100340000204023C2623263C1EA1A161123A404031
:10035000207A3854545559215555794122545478AE
:1003600042215554784020545579400C1E52721247
:1003700039555555593954545459395554545800D0
:1003800000457C410002457D420001457C407D12D4
:1003900011127DF0282528F07C5455450020545436
:1003A0007C547C0A097F4932494949323A444444E1
:1003B0003A324A4848303A4141217A3A424020781C
:1003C000009DA0A07D3D4242423D3D4040403D3C1D
:1003D00024FF2424487E4943662B2FFC2F2BFF0942
:1003E00029F620C0887E0903205454794100004436
:1003F0007D413048484A32384040227A007A0A0A21
:10040000727D0D19317D2629292F28262929292693
:1004100030484D4020380808080808080808382FD8
:1004200010C8ACBA2F102834FA00007B0000081462
:100430002A142222142A14085500550055AA55AA38
:1004400055AAFF55FF55FF000000FF00101010FFD8
:1004500000141414FF001010FF00FF1010F010F033
:10046000141414FC001414F700FF0000FF00FF1424
:1004700014F404FC141417101F10101F101F141470
:10048000141F00101010F0000000001F10101010BA
:100490001F10101010F010000000FF1010101010AE
:1004A00010101010FF10000000FF140000FF00FFEC
:1004B00000001F10170000FC04F414141710171488
:1004C00014F404F40000FF00F714141414141414AA
:1004D000F700F7141414171410101F101F1414141D
:1004E000F4141010F010F000001F101F0000001F87
:1004F00014000000FC140000F010F01010FF10FFBA
:10050000141414FF141010101F00000000F010FF4E
:10051000FFFFFFFFF0F0F0F0F0FFFFFF0000000032
:1005200000FFFF0F0F0F0F0F3844443844FC4A4AB6
:100530004A347E02020606027E027E02635549416B
:10054000633844443C04407E201E2006027E0202A2
:1005500099A5E7A5991C2A492A1C4C7201724C30B6
:100560004A4D4D303048784830BC625A463D3E498D
:100570004949007E0101017E2A2A2A2A2A44445F31
:10058000444440514A444040444A51400000FF0125
:1005900003E080FF000008086B6B08361236243633
:1005A000060F090F06000018180000001010003098
:1005B00040FF0101001F01011E00191D1712003C20
:1005C0003C3C3C000000000004E010021C07123715
:1005D00032292D29252B3900010310E110031D07B5
:1005E000062E2C292D2E2E373F0000021013800AD4
:1005F000298064022A040000007F2B040000007F91
:10060000022A040000007F2B040000009F022A043D
:10061000000200812B04000100A00F0180961180D0
:10062000FFB103012C2DB203012C2DB306012C2D9B
:10063000012C2DB40107C003A20284C101C5C2026E
:100640000A00C3028A2AC4028AEEC5010E200036BF
:1006500001C83A01050000000200080E0000030472
:1006600001000B000000000000000000000000007E
:10067000000000040802011040804010204080402B
:1006800080080204018040201002011080102040E8
:1006900040040404040403040502020202040302E9
:1006A000020202060606060606040402020204000E
:1006B000000000250028002B002E00310000000063
:1006C00000240027002A002D003000080B00020241
:1006D00002010009040000010202000005240010CC
:1006E0000105240101010424020605240600010776
:1006F00005810310004009040100020A0000000700
:100700000502024000000705830240000000C1808E
:1007100081C112010002020000404123418000011A
:10072000010200011201000200000040412341804B
:10073000000101020001180341007200640075000D
:1007400069006E006F0020004C004C004300220343
:10075000550053004200200049004F002000420095
:100760006F00610072006400200020002000200063
:100770000403090400000000000000002A2B2800E8
:100780000000000000000000000000000000000069
:10079000000000002C9EB4A0A1A2A434A6A7A5AE80
:1007A000362D3738271E1F20212223242526B33338
:1007B000B62EB7B89F8485868788898A8B8C8D8E64
:1007C0008F909192939495969798999A9B9C9D2F30
:1007D0003130A3AD350405060708090A0B0C0D0ED0
:1007E0000F101112131415161718191A1B1C1DAF10
:1007F000B1B0B500090402000103000000092101A5
:1008000001000122C9000705840340000105010918
:1008100002A1010901A1008501050919012903159A
:100820000025019503750181029501750581030578
:10083000010930093109381581257F750895038133
:1008400006C0C005010906A1018502050719E029B6
:10085000E71500250175019508810295017508814C
:10086000039506750815002565050719002965819A
:1008700000C0050C0901A10185041500250109E945
:1008800009EA75019502810609E29501810609B020
:100890009501810609B19501810609B79501810687
:1008A00009B59501810609B69501810609B395013F
:1008B000810609B49501810695068107C0050C09DA
:1008C00001A101850519002A3C021500263C02956C
:1008D0000175108100C049057E1C542311241FBEE0
:1008E000CFEFDAE0DEBFCDBF13E0A0E0B1E0ECE98E
:1008F000FBE402C005900D92AC34B107D9F723E0B8
:10090000ACE4B3E001C01D92AD3EB207E1F718E0E0
:10091000CCEDD8E004C02297FE010E94C325C63D5D
:10092000D107C9F70E94951C0C94CC250C940000AB
:100930000F931F93CF93DF93EC018B0140E050E0C6
:1009400060E070E08CE493E00E94FC15B8018CE458
:1009500093E00E94081661E08CE493E00E940E167A
:10096000BE018CE493E0DF91CF911F910F910C9425
:10097000E41C4F925F926F927F928F929F92AF9200
:10098000BF92CF92DF92EF92FF920F931F93CF937C
:10099000DF933B01C82FD0E05E01AA0CBB1CC12C29
:1009A000D12C46018C0E9D1E8CE493E00E94111602
:1009B00088169906D4F4E12CF12C27014C0E5D1E0B
:1009C0008CE493E00E941516EA0CFB1C48165906AD
:1009D0004CF483019E01A201B4018CE493E00E94D7
:1009E000DB0FEBCFCA0CDB1CDCCFDF91CF911F916B
:1009F0000F91FF90EF90DF90CF90BF90AF909F90BE
:100A00008F907F906F905F904F9008958F929F92FC
:100A1000AF92BF92CF92DF92EF92FF920F931F930C
:100A2000CF93DF934B01C82ED12C5601AA0CBB1CCF
:100A3000E12CF12C8CE493E00E9411168C0D9D1D8D
:100A4000E816F906CCF4C0E0D0E08CE493E00E9414
:100A500015168C0D9D1DC817D9075CF484019601ED
:100A6000AE01B7018CE493E00E94EB0CCA0DDB1DD4
:100A7000ECCFEA0CFB1CDECFDF91CF911F910F91E1
:100A8000FF90EF90DF90CF90BF90AF909F908F90AE
:100A9000089529E048E06AE08CE493E00C944D1658
:100AA000AF92BF92CF92DF92EF92FF920F931F937C
:100AB000CF93DF93EC0160E070E08CE493E00E9460
:100AC0001916C12CD12C8CE493E00E941116C81683
:100AD000D906DCF4E0914C03F0914D03A680B78079
:100AE0008CE493E00E9415168C01015011097E01DF
:100AF000960140E050E060E070E08CE493E0F501A6
:100B00000995F6E0CF0ED11CDECFC12CD12C8CE4A0
:100B100093E00E941516C816D906DCF4E0914C0348
:100B2000F0914D03A680B7808CE493E00E941116EB
:100B30009C01215031097E01860140E050E060E0D7
:100B400070E08CE493E0F5010995F6E0CF0ED11C3E
:100B5000DECF60E070E08CE493E00E941916C12CB7
:100B6000D12C8CE493E00E941116C816D90604F526
:100B7000E0914C03F0914D03A680B7808CE493E0A4
:100B80000E9415168C018CE493E00E94111601500E
:100B90001109BC01615071097E01960140E050E0ED
:100BA0008CE493E0F5010995F6E0CF0ED11CD9CF86
:100BB000C12CD12C8CE493E00E941516C816D906DE
:100BC000DCF4E0914C03F0914D03A680B7808CE4F7
:100BD00093E00E941116BC01615071097E018601EB
:100BE00020E030E040E050E08CE493E0F50109952E
:100BF000F6E0CF0ED11CDECF60E070E08CE493E035
:100C00000E941916C12CD12C8CE493E00E9411167D
:100C1000C816D906DCF4E0914C03F0914D03A68090
:100C2000B7808CE493E00E941516AC014150510945
:100C30007E0100E010E0960160E070E08CE493E05B
:100C4000F5010995F6E0CF0ED11CDECFC12CD12CD9
:100C50008CE493E00E941516C816D9060CF5E091B5
:100C60004C03F0914D03A680B7808CE493E00E9482
:100C700011168C018CE493E00E9415169801215006
:100C80003109AC01415051097E01860160E070E0FC
:100C90008CE493E0F5010995F6E0CF0ED11CD8CF96
:100CA00060E070E08CE493E00E941916C12CD12C16
:100CB0008CE493E00E941116C816D9060CF5E09159
:100CC0004C03F0914D03A680B7808CE493E00E9422
:100CD00015168C018CE493E00E941116A801415076
:100CE0005109BC01615071097E0100E010E09601DC
:100CF0008CE493E0F5010995F6E0CF0ED11CD8CF36
:100D0000C12CD12C8CE493E00E941516C816D9068C
:100D10000CF5E0914C03F0914D03A680B7808CE474
:100D200093E00E9415168C018CE493E00E9411164A
:100D3000A80141505109BC01615071097E01860131
:100D400020E030E08CE493E0F5010995F6E0CF0E69
:100D5000D11CD8CFDF91CF911F910F91FF90EF90D1
:100D6000DF90CF90BF90AF9008958F929F92AF92F7
:100D7000BF92CF92DF92EF92FF920F931F93CF9388
:100D8000DF935C0160E070E08CE493E00E94191650
:100D9000C0E0D0E08CE493E00E941116C817D90798
:100DA0009CF5E0914C03F0914D03C484D5848CE410
:100DB00093E00E9415168E01D7FF02C00F5F1F4FF0
:100DC00015950795119501951109AC0197FF02C082
:100DD0004F5F5F4F4A0195948794800E911E8CE47B
:100DE00093E00E94111697FD0196BC0175956795D9
:100DF000600F711F75018E019E01A4018CE493E0C8
:100E0000F60109952696C6CFDF91CF911F910F91DC
:100E1000FF90EF90DF90CF90BF90AF909F908F901A
:100E200008952F923F924F925F926F927F928F928E
:100E30009F92AF92BF92CF92DF92EF92FF920F9369
:100E40001F93CF93DF9360E070E08CE493E00E9407
:100E500019168CE493E00E94111697FD01961C016F
:100E6000359427948CE493E00E94151601974C0169
:100E70008CE493E00E9411162C01C0E0D0E0612CBC
:100E800068EF762E7201EC1AFD0A530164018401A9
:100E90009E01AE01B1018CE493E00E94421184E016
:100EA000881A9108249684E6680E711C80E46816FE
:100EB0008EEF780639F7DF91CF911F910F91FF9058
:100EC000EF90DF90CF90BF90AF909F908F907F90EA
:100ED0006F905F904F903F902F9008952F923F9288
:100EE0004F925F926F927F928F929F92AF92BF923A
:100EF000CF92DF92EF92FF920F931F93CF93DF93E6
:100F000060E070E08CE493E00E941916C4E6D0E043
:100F10008CE493E00E94111602974C018CE493E05C
:100F20000E94151602973C011E01412C512CA12C48
:100F3000B12C610175E0E72EF12C83019401A2012F
:100F4000B5018CE493E00E94121082E0A80EB11C5F
:100F500083E0480E511C84E0881A910886E0681AE4
:100F6000710884EB281A8BEF380A82E2A816B104C4
:100F700001F7C059D64BC4398FE6D80749F6DF913F
:100F8000CF911F910F91FF90EF90DF90CF90BF9086
:100F9000AF909F908F907F906F905F904F903F9019
:100FA0002F90089560E08CE493E00E940E1660E0BC
:100FB00070E08CE493E00E9419164EE150E060E08E
:100FC00070E08CE493E00E94FC1560E078EF8CE424
:100FD00093E00E94081661E08CE493E00E94021600
:100FE0006EE071E08CE493E00E94011D60EE7FEF03
:100FF0008CE493E00E94081662E08CE493E00E9487
:1010000002166EE071E08CE493E00E94011D60EE38
:1010100077E08CE493E00E94081663E08CE493E0B0
:101020000E9402166EE071E08CE493E00E94011DC4
:101030006FE170E08CE493E00E94081664E08CE4B9
:1010400093E00E94021622E030E045E252E56AE9B0
:1010500074E48CE493E00E94C41E6CED75E080E0C3
:1010600090E00E94601A40E050E060E070E08CE4A4
:1010700093E00E94FC1560E070E08CE493E00E9435
:1010800019166FEF7FEF8CE493E00E94081660E082
:101090008CE493E00E9402166EE071E08CE493E031
:1010A0000E94011D61E08CE493E00E94021660EE54
:1010B00077E08CE493E00E94081640910001509183
:1010C0000101609102017091030126E030E08CE49F
:1010D00093E00E94C41E6BE171E08CE493E00E94F7
:1010E000011D68EE72E08CE493E00E94011D20E196
:1010F00030E04DEE5FE564E870E08CE493E00E9440
:101100006C1D65E271E08CE493E00E94011D68EEC5
:1011100072E08CE493E00E94011D6FEF7FEF8CE49E
:1011200093E00E94081661E371E08CE493E00E9472
:10113000011D61E471E08CE493E00E94011D6FE108
:1011400078EF8CE493E00E9408160E94311A28EE92
:1011500033E040E050E00E948025BA01A9012AE076
:1011600030E08CE493E00E94B61D6FEF7FEF8CE4DB
:1011700093E00E9408166FE471E08CE493E00C9415
:10118000E41CAF92BF92CF92DF92EF92FF920F9347
:101190001F9360E070E08CE493E00E941916CC2469
:1011A000CA94DC2CF8E0EF2EF12C0CE310E02EE4D6
:1011B00030E04AE050E069E170E08CE493E00E94A6
:1011C000CF10A12CA8EFBA2EB8E2CB2ED12C8AE5F5
:1011D000E82EF12C2AE230E044E150E06AE270E0CF
:1011E0008CE493E00E949D1164EF71E080E090E058
:1011F0000E94601ACC24CA94DC2C28E0E22EF12C48
:101200002EE430E04AE550E069E170E08CE493E0E0
:101210000E94CF1030EEC32E37E0D32E45E0E42EEF
:10122000F12C0DE210E024E130E042E650E067E20C
:1012300070E08CE493E00E94CF1024E130E042E6BD
:1012400050E065E470E08CE493E00E94CF1064EF1E
:1012500071E080E090E00E94601A5FE1A52EB12C61
:1012600068E2C62ED12C7AE5E72EF12C0CE310E0D3
:101270002AE230E044E150E06AE270E08CE493E07E
:101280000E949D1162E370E080E090E00E94601A8D
:10129000C12CE8EFDE2EF5E0EF2EF12C0DE210E090
:1012A00024E130E042E650E067E270E08CE493E055
:1012B0000E94CF1024E130E042E650E065E470E0A7
:1012C0008CE493E00E94CF10A0EEAA2EA7E0BA2EE5
:1012D000B8E2CB2ED12C1AE5E12EF12C0CE310E074
:1012E0002AE230E044E150E06AE270E08CE493E00E
:1012F0000E949D111F910F91FF90EF90DF90CF9072
:10130000BF90AF90089561E08CE493E00E94D816FE
:1013100064EF71E080E090E00E94601A60E08CE48D
:1013200093E00E94D81664EF71E080E090E00C94A6
:10133000601ACF92DF92EF92FF920F931F93CF9399
:10134000DF936C017B0160E070E08CE493E00E942D
:101350001916C0E0D0E08CE493E00E941516C8177F
:10136000D9077CF48CE493E00E94111686019C015D
:10137000AE0160E070E08CE493E00E9424192596B1
:10138000EACFC0E0D0E08CE493E00E941116C817C9
:10139000D9077CF48CE493E00E94151687019C0128
:1013A00040E050E0BE018CE493E00E94E9182596ED
:1013B000EACFDF91CF911F910F91FF90EF90DF90D7
:1013C000CF9008954F925F926F927F928F929F92EB
:1013D000AF92BF92CF92DF92EF92FF920F931F9343
:1013E000CF93DF934C013B0160E070E08CE493E02D
:1013F0000E9419168CE493E00E941116EC012197CB
:10140000C730D1050CF452C08CE493E00E9415164D
:101410006E01D7FF03C02FEFC21AD20AD594C7942A
:10142000D194C194D108AC0197FF02C04F5F5F4FC8
:101430005A01B594A794AC0CBD1C8CE493E00E94B7
:10144000111697FD0196BC01759567956C0D7D1D74
:1014500074018E019E01A5018CE493E00E945F1946
:10146000E0914C03F0914D03A484B5848CE493E0A7
:101470000E94151697FD01962C01559447944C0C2B
:101480005D1C8CE493E00E94111697FD0196BC014F
:10149000759567956C0D7D1D73018E019E01A201EE
:1014A0008CE493E0F50109952697AACFDF91CF91BF
:1014B0001F910F91FF90EF90DF90CF90BF90AF9072
:1014C0009F908F907F906F905F904F900895CF92F4
:1014D000DF92EF92FF9260E875E285E893E00E9468
:1014E0007D1C69E571E085E893E00E94E41C62E000
:1014F0008CE493E00E941D1860E771E085E893E0BA
:101500000E94011D0E94311A6B017C0160E070E0B5
:101510008CE493E00E9419160E94311A6C197D091F
:101520004AE050E085E893E00E94C31D64EF71E05B
:1015300080E090E00E94601A60E070E08CE493E04C
:101540000E9419166FEF7FEF8CE791E00E949804DC
:1015500068EE73E080E090E00E94601A0E94D2077B
:1015600060EA7FE080E090E00E94601A8CE493E003
:101570000E9415167C018CE493E00E941116A701CD
:10158000F7FE02C04F5F5F4F55954795BC0197FF2F
:1015900002C06F5F7F4F7595679520EE37E08CE452
:1015A00093E00E949C1864EF71E080E090E00E945C
:1015B000601A80EE9FEF0E94500564EF71E080E0BA
:1015C00090E00E94601A6FE170E080E098EF0E9466
:1015D000990964EF71E080E090E00E94601A80EE6B
:1015E00097E00E94B50664EF71E080E090E00E9411
:1015F000601A6FE178EF80EE9FEF0E94E20964EFDE
:1016000071E080E090E00E94601A60E070E08CE49D
:1016100093E00E9419166FE170E08AE00E94B9041D
:101620006FEF7FEF8AE00E94060564EF71E080E0D3
:1016300090E00E94601A0E946E0764EF71E080E003
:1016400090E00E94601A0E94110764EF71E080E050
:1016500090E00E94601A0E94C10864EF71E080E08F
:1016600090E00E94601A6AEE72E085E893E00E94C2
:10167000011D68EE73E080E090E0FF90EF90DF9056
:10168000CF900C94601A2F923F924F925F926F927C
:101690007F928F929F92AF92BF92CF92DF92EF9202
:1016A000FF920F931F93CF93DF9300D000D0CDB75D
:1016B000DEB74C017C836B836A015901C801870145
:1016C000AC014C195D0957FF03C051954195510973
:1016D00095016B817C81261B370B37FF03C0319549
:1016E0002195310922242394312C2417350714F035
:1016F000212C312C2114310459F03A2D2B2D5C0171
:10170000832F922F3B812C81DC82CB82C32ED22E61
:10171000AB81BC81AA16BB065CF43C2D2D2D6C015F
:10172000832F922F3B812C81BC82AB82A32EB22EC1
:101730002501EB81FC814E1A5F0A3C016C187D0883
:1017400077FE03C0719461947108720157FE03C063
:10175000FFEFEF1AFF0AF594E794C816D9062CF4A8
:1017600021E030E03A83298324C06FEF7FEF7A8352
:1017700069831FC0D401ED91FC910480F581E02DB7
:10178000980121143104D9F04B815C81B601C40168
:101790000995E618F708F7FE06C0E981FA81CE0E32
:1017A000DF1EE40CF51C2B813C812F5F3F4F3C83F7
:1017B0002B836B817C81A616B706E4F604C0A601D4
:1017C0006B817C81E4CF0F900F900F900F90DF9191
:1017D000CF911F910F91FF90EF90DF90CF90BF902E
:1017E000AF909F908F907F906F905F904F903F90C1
:1017F0002F9008956F927F928F929F92AF92BF9297
:10180000CF92DF92EF92FF920F931F93CF93DF93CC
:10181000EC015B016A0139014801E881F981028428
:10182000F385E02D87010995E881F981A601480D2E
:10183000591D415051090284F385E02D9301B501F2
:10184000CE010995E881F9810084F185E02D9401AC
:10185000A601B501CE010995E881F981B501660DB2
:10186000771D615071090084F185E02D9401A60176
:10187000CE010995DF91CF911F910F91FF90EF90CD
:10188000DF90CF90BF90AF909F908F907F906F90A0
:101890000895EF92FF920F931F93DC01ED91FC915D
:1018A000240F351F215031090680F781E02D780182
:1018B00089019B0109951F910F91FF90EF90089569
:1018C000EF92FF920F931F93DC01ED91FC91260F95
:1018D000371F215031090680F781E02D78018A01F8
:1018E00009951F910F91FF90EF9008956F927F924D
:1018F0008F929F92AF92BF92CF92DF92EF92FF9220
:101900000F931F93CF93DF935C014A016901380164
:10191000EB01C60ED71ECC15DD0574F4D501ED9193
:10192000FC910084F185E02D87019301A401BE01A3
:10193000C50109952196EFCFDF91CF911F910F91AE
:10194000FF90EF90DF90CF90BF90AF909F908F90DF
:101950007F906F900895EF92FF920F931F93DC0199
:10196000ED91FC9111971A960D911C911B97189669
:101970002D913C9119970684F785E02D7B0140E07D
:1019800050E060E070E009951F910F91FF90EF909B
:1019900008950895FC011382128283EF92E09183EF
:1019A00080837583648357834683718760875387F9
:1019B0004287158A158614861786168621E0248BA1
:1019C0008FEF9FEF938B828B918B808B268B178A67
:1019D000118E108E08952F923F924F925F926F92C8
:1019E0007F928F929F92AF92BF92CF92DF92EF92AF
:1019F000FF920F931F93CF93DF9300D000D000D0BE
:101A0000CDB7DEB79E838D836B015A0179016624C1
:101A10006394712C621A730A44245524421A530A9F
:101A2000440C551CDC01ED91FC91420F531F0480C6
:101A3000F581E02D98010995AD81BE81ED91FC9174
:101A40001197A5014E195F090480F581E02D9801D9
:101A5000B601CD010995AD81BE81ED91FC91119743
:101A6000B6016E0D7F1D0480F581E02D9801A50162
:101A7000CD010995AD81BE81ED91FC911197B60123
:101A80006E197F090480F581E02D9801A501CD0133
:101A90000995812C912C8E149F040CF0A1C077FC29
:101AA00008C0B1E0EB1AF108E2E04E0E511C640CE4
:101AB000751CFFEF8F1A9F0AC401880F991F0196AA
:101AC000680E791EC4018C0D9D1D9C838B83AD8196
:101AD000BE81ED91FC9111970480F581E02D980174
:101AE00015012E0C3F1CA101BC01CD010995F60189
:101AF000E819F909FA83E983AD81BE81ED91FC9182
:101B000011970480F581E02D9801A10169817A8106
:101B1000CD010995AD81BE81ED91FC9111970480B5
:101B2000F581E02D980115012E183F08A1016B8168
:101B30007C81CD010995AD81BE81ED91FC9111971C
:101B40000480F581E02D9801A10169817A81CD01A0
:101B5000099514012A0C3B1CAD81BE81ED91FC91CD
:101B600011970480F581E02D9801A101C6018E0D29
:101B70009F1D9C838B83BC01CD010995AD81BE81E6
:101B8000ED91FC9111970480F581E02D9801A10160
:101B9000C6018E199F099A838983BC01CD010995DD
:101BA000150128183908AD81BE81ED91FC9111977E
:101BB0000480F581E02D9801A1016B817C81CD012C
:101BC0000995AD81BE81ED91FC9111970480F5815D
:101BD000E02D9801A10169817A81CD0109955BCF42
:101BE00026960FB6F894DEBF0FBECDBFDF91CF9122
:101BF0001F910F91FF90EF90DF90CF90BF90AF902B
:101C00009F908F907F906F905F904F903F902F901C
:101C100008952F923F924F925F926F927F928F9290
:101C20009F92AF92BF92CF92DF92EF92FF920F936B
:101C30001F93CF93DF9300D000D000D0CDB7DEB795
:101C40009E838D834B013A016901802F4424439484
:101C5000512C421A530A22243324221A330A220C0A
:101C6000331CAA24A394B12C01E010E0982F9470A7
:101C70009983A82FA270AA83B82FB870BB838170F4
:101C80008C83C50101978C159D050CF0A6C057FCEF
:101C900008C0E1E0CE1AD108F2E02F0E311C420C50
:101CA000531C0E5F1F4F400E511E8981882311F176
:101CB000AD81BE81ED91FC9111970480F581E02DFD
:101CC0009701A3014C0D5D1DB501680D791DCD0176
:101CD0000995AD81BE81ED91FC9111970480F5814C
:101CE000E02D9701A501460D571DB4016C0D7D1D1A
:101CF000CD010995BA81BB2311F1AD81BE81ED9172
:101D0000FC9111970480F581E02D9701A3014C19F6
:101D10005D09B501680D791DCD010995AD81BE81C3
:101D2000ED91FC9111970480F581E02D9701A301BD
:101D30004A195B09B4016C0D7D1DCD010995BB816C
:101D4000BB2311F1AD81BE81ED91FC91119704800F
:101D5000F581E02D9701A501460D571DB4016C19C1
:101D60007D09CD010995AD81BE81ED91FC91119761
:101D70000480F581E02D9701A3014C0D5D1DB40198
:101D80006A197B09CD010995BC81BB2311F1AD8195
:101D9000BE81ED91FC9111970480F581E02D9701B2
:101DA000A3014A195B09B4016C197D09CD0109959C
:101DB000AD81BE81ED91FC9111970480F581E02DFC
:101DC0009701A3014C195D09B4016A197B09CD0182
:101DD0000995BFEFAB1ABB0A54CF26960FB6F894FD
:101DE000DEBF0FBECDBFDF91CF911F910F91FF904E
:101DF000EF90DF90CF90BF90AF909F908F907F90AB
:101E00006F905F904F903F902F9008952F923F9248
:101E10004F925F926F927F928F929F92AF92BF92FA
:101E2000CF92DF92EF92FF920F931F93CF93DF93A6
:101E3000CDB7DEB728970FB6F894DEBF0FBECDBF83
:101E40005C011B015A83498338872F83FC82EB8214
:101E500088248394912C821A930A39017194619495
:101E60007108660C771C270123E0420E511CEE24FA
:101E7000E394F12C302F31703D8302700E83C70143
:101E80000197EF81F8858E179F070CF07BC097FCB8
:101E90000AC08F819885019798878F8392E0690E99
:101EA000711C860C971CC201AB81BC818A1B9B0BE9
:101EB000880E991EBD81BB2369F1D501ED91FC917E
:101EC0002F813885220F331F2F5F3F4F8B819C81DD
:101ED000280F391F0084F185E02D860149815A8140
:101EE000AF81B8854A1B5B0BB701620D731DC5013D
:101EF0000995D501ED91FC910084F185E02D9201C9
:101F000049815A814E195F096F817885620D731D71
:101F1000C5010995BE81BB2371F1D501ED91FC91FD
:101F20002F813885220F331F2F5F3F4F8B819C817C
:101F3000280F391F0084F185E02D860149815A81DF
:101F4000AF81B8854A1B5B0BB1016E197F09C501D2
:101F50000995D501ED91FC910084F185E02D920168
:101F600049815A814E195F09B1018F819885681B9B
:101F7000790BC50109959FEFE91AF90AA2E04A0E0B
:101F8000511C7DCF28960FB6F894DEBF0FBECDBF93
:101F9000DF91CF911F910F91FF90EF90DF90CF9045
:101FA000BF90AF909F908F907F906F905F904F9079
:101FB0003F902F9008956F927F928F929F92AF9251
:101FC000BF92CF92DF92EF92FF920F931F93CF9326
:101FD000DF93EC014B013A0159016801E881F98175
:101FE000220F331F2F5F3F4F4A195B090084F18591
:101FF000E02D0995E12CF12C03E09501A301B4013A
:10200000CE010E94060FDF91CF911F910F91FF909B
:10201000EF90DF90CF90BF90AF909F908F907F9088
:102020006F9008952F923F924F925F926F927F929E
:102030008F929F92AF92BF92CF92DF92EF92FF92D8
:102040000F931F93CF93DF93CDB7DEB728970FB6CB
:10205000F894DEBF0FBECDBF98878F833B014A0146
:102060003C832B831E830D835701EE24FF24EA1843
:10207000FB08EE0CFF1CC9018E0D9F1D9A838983FE
:102080002B014A0C5B1CAF81B885ED91FC91119737
:102090000284F385E02D86019C01B201CD010995F2
:1020A0002D803E80280C391CAF81B885ED91FC91C4
:1020B0001197A101415051090284F385E02D298136
:1020C0003A81B201CD010995ED81FE81EE0EFF1E30
:1020D0008A0C9B1CAF81B885ED91FC91119700840F
:1020E000F185E02D9701A401B301CD010995EB81A4
:1020F000FC816E0E7F1EAF81B885ED91FC9111972A
:10210000B301615071090084F185E02D9701A401AC
:10211000CD010995760101E09501A401B2018F81FD
:1021200098850E94090E6A187B08B1E06B1A710845
:1021300002E09501A401B3018F8198850E94090EE8
:1021400041018A189B08E1E08E1A910804E095018C
:10215000A401B3018F8198850E94090E08E09501C2
:10216000A401B2018F8198850E94090E28960FB6AE
:10217000F894DEBF0FBECDBFDF91CF911F910F91BD
:10218000FF90EF90DF90CF90BF90AF909F908F9097
:102190007F906F905F904F903F902F9008952F9277
:1021A0003F924F925F926F927F928F929F92AF92E7
:1021B000BF92CF92DF92EF92FF920F931F93CF9334
:1021C000DF9300D000D000D0CDB7DEB75C017A83BA
:1021D00069833A013C832B834801FE82ED8226010C
:1021E0006701D194C194D108CC0CDD1C1B012E0CCD
:1021F0003F1CD501ED91FC912C0D3D1D0684F7850A
:10220000E02D72018401B101C50109958C0C9D1C62
:10221000B1E08B1A9108ED81FE816E0E7F1E6981FF
:102220007A818B819C81680F791F6E1B7F0B6150B7
:1022300071096201740101E09F01A301C5010E94BF
:10224000060F02E02D813E81A301B101C5010E946C
:10225000060F26960FB6F894DEBF0FBECDBFDF91F6
:10226000CF911F910F91FF90EF90DF90CF90BF9093
:10227000AF909F908F907F906F905F904F903F9026
:102280002F9008952F923F924F925F926F927F927C
:102290008F929F92AF92BF92CF92DF92EF92FF9276
:1022A0000F931F93CF93DF9300D000D0CDB7DEB74D
:1022B0009C838B831B012A0149013801FA82E98240
:1022C000DC01ED91FC910680F781E02D7501099507
:1022D000AB81BC81ED91FC9111970680F781E02DD7
:1022E000860129813A81A301B401CD010995AB8111
:1022F000BC81ED91FC9111970680F781E02D820160
:102300009101A60169817A81CD0109950F900F9005
:102310000F900F90DF91CF911F910F91FF90EF9051
:10232000DF90CF90BF90AF909F908F907F906F90F5
:102330005F904F903F902F9008952F923F924F9231
:102340005F926F927F928F929F92AF92BF92CF9245
:10235000DF92EF92FF920F931F93CF93DF93CDB74E
:10236000DEB7AE970FB6F894DEBF0FBECDBF98872D
:102370008F834B013A0129011EA70DA7B701DA820D
:10238000C982BE8AAD8A041715074CF4872D38011F
:102390004DA78EA7982D892D4901492E582E2DA580
:1023A0003EA549815A81421753075CF49DA58EA52D
:1023B0005EA74DA799838A83942D852D2B01692FC4
:1023C000782F8DA59EA5861597055CF4962D872DF3
:1023D0006DA47EA49DA78EA7982D892D4201492E1C
:1023E000582EA981BA816A167B0619F5481459043A
:1023F0002CF0942D852D2401892E982E64157505B9
:102400002CF0861697060CF44B01B201AF81B8850B
:10241000ED91FC9111979401261B370B2F5F3F4FD5
:102420000284F385E02D0D891E89A301CD01099554
:1024300052C1C201881999092DA53EA5261937094F
:10244000FB01E819F909FA87E98749815A81461998
:1024500057095E874D87DB01A419B509BA8BA98B93
:10246000E981FA814DA55EA5E41BF50BF88FEF8B92
:1024700069817A814617570729F0415051095C8FCD
:102480004B8F04C0ADA5BEA5BC8FAB8F1301A12C93
:10249000B12C65011B821C821D821E82A901662748
:1024A00057FD6095762F4D8F5E8F6F8F78A32D85AA
:1024B0003E85442737FD4095542F29A33AA34BA3CB
:1024C0005CA3AC01662757FD6095762F4DA35EA3F4
:1024D0006FA378A769857A85882777FD8095982FDF
:1024E00069A77AA78BA79CA7EB8DFC8DE215F30556
:1024F0000CF44EC06B817C818D819E812D8D3E8D33
:102500004F8D58A10E94A2257401E20EF31EC60150
:10251000B50129A13AA14BA15CA10E94A225B40159
:10252000620F731F8B819C81AD81BE812DA13EA165
:102530004FA158A5820F931FA41FB51F8B839C83A7
:10254000AD83BE8389A59AA5ABA5BCA5A80EB91E6F
:10255000CA1EDB1E6E157F052CF0962F872FB70144
:10256000E92EF82EAF81B885ED91FC911197970176
:10257000261B370B2F5F3F4F0284F385E02D0D891B
:102580001E89A101CD010995BFEF2B1A3B0AACCFE3
:1025900091014DA55EA5241B350B69897A89629F3F
:1025A000C001639F900D729F900D11249C014427E0
:1025B00037FD4095542F2B833C834D835E83C101AF
:1025C0008619970949855A85489F6001499FD00C13
:1025D000589FD00C1124EE24D7FCE094FE2C6F8978
:1025E000788D882777FD8095982F6F8B788F898FCE
:1025F0009A8F8D859E85AA2797FDA095BA2F8D87E6
:102600009E87AF87B88B29893A89442737FD409543
:10261000542F298B3A8B4B8B5C8B49855A856627C7
:1026200057FD6095762F49875A876B877C87E981AC
:10263000FA81E215F3050CF44EC06B817C818D812B
:102640009E812F89388D498D5A8D0E94A225520175
:10265000A20EB31EC701B6012D853E854F85588950
:102660000E94A225B401620F731F8B819C81AD81F2
:10267000BE8129893A894B895C89820F931FA41FE7
:10268000B51F8B839C83AD83BE8389859A85AB857B
:10269000BC85C80ED91EEA1EFB1E6A157B052CF0F0
:1026A000962F872FB501A92EB82EAF81B885ED9151
:1026B000FC9111979501261B370B2F5F3F4F02842A
:1026C000F385E02D0D891E89A101CD010995BFEF8C
:1026D0002B1A3B0AACCFAE960FB6F894DEBF0FBEF6
:1026E000CDBFDF91CF911F910F91FF90EF90DF90C1
:1026F000CF90BF90AF909F908F907F906F905F90A2
:102700004F903F902F9008952F923F924F925F925B
:102710006F927F928F929F92AF92BF92CF92DF92F1
:10272000EF92FF920F931F93CF93DF93CDB7DEB756
:102730006A970FB6F894DEBF0FBECDBF1C01588755
:102740004F831C870B87FA86E986CC82DC0158967A
:102750004D915C9159974115510509F0A6C0189605
:102760008D919C911997681779070CF056C11A96AC
:102770008D919C911B97EF81F885E817F9070CF074
:102780004CC1D12CCB013C81F6E03F9F800D911DC7
:102790001124181619060CF040C1C60103E0880F79
:1027A000991F0A95E1F74F815885840F951F1816D8
:1027B00019060CF032C157968C91811103C0203B51
:1027C00008F02F5F7E876D874B01198218ECA12ED0
:1027D00010E0B12EA61AB70A55E0259FA00CB11C37
:1027E00011248981853039F0ED85FE85EA0DFB1DC8
:1027F00094919A8301C01A826F8078842301A8E0A3
:10280000AD83BA81B0FF12C0D101ED91FC91BC81C2
:10281000B13031F40480F581E02D2B853C8518C062
:102820000684F785E02DEB84FC841DC0E985FA85DC
:102830002B853C85E217F307E1F0D101ED91FC9186
:10284000BC81B13059F40480F581E02D29853A85A9
:10285000A2016D857E85C10109950BC00684F785AF
:10286000E02DE984FA8486019601A301B401C10137
:102870000995EA81E695EA83FD81F150FD836C0CB0
:102880007D1C2FEF421A520AF111BBCF39813F5FF5
:1028900039838C0C9D1C4D855E854F5F5F4F5E8735
:1028A0004D87363009F09DCFB8C0FA013496349187
:1028B000329785919491231BA7E02A9F800D911D4B
:1028C0001124FA0125913491398B288BFC01459113
:1028D00054915A8F498FFC01329654915987319601
:1028E000A491AF873196E491FC01359624913196FD
:1028F0008491BC81B23050F0622E772467FC7094D2
:10290000E82FFF27E7FDF095FE87ED87FC81CF2EAE
:10291000D12C6C9C40016D9C900C7C9C900C1124E3
:10292000860E971EA12C1982DE8ACD8AAB01420F3A
:10293000511D27FD5A955E834D83AF81B885A80F41
:10294000B11D87FDBA95B88FAF8B59818F85581708
:1029500008F063C0852F90E02D853E85280F391F34
:102960002C9DD0012D9DB00D3C9DB00D1124EF810B
:10297000F885EA0FFB1FFB83EA836D807E802401CC
:10298000FA2D2D81F21BFA8B4F89588D480F591F54
:102990005C8B4B8B9A89960D862D2D81821B3985F8
:1029A0008317B0F5977061F4898D9A8D0196E88947
:1029B000F989298D3A8DE20FF31FB4909A8F898F90
:1029C000B7FE1DC0D101ED91FC91BC81B13059F42D
:1029D0000480F581E02D2B853C854B895C89B30112
:1029E000C10109950CC00684F785E02DEB84FC84B9
:1029F000860196014A815B81B201C1010995BB0C38
:102A0000ED89FE894E0E5F1EFFEF6F1A7F0AC2CF5F
:102A1000A30E49814F5F498398CF6A960FB6F89409
:102A2000DEBF0FBECDBFDF91CF911F910F91FF9001
:102A3000EF90DF90CF90BF90AF909F908F907F905E
:102A40006F905F904F903F902F900895AF92BF92FC
:102A5000CF92EF92FF920F931F93CF93DF93EC01EE
:102A6000262F888D998D009709F042C06A3069F44D
:102A70002C898E859F8538E0239F800D911D112420
:102A80009F878E871D861C86ABC06D3009F4A8C059
:102A90008E898823C1F03C898C859D8546E0349FD2
:102AA000800D911D112448855985841795075CF088
:102AB0001D861C868E859F85E8E03E9F800D911DBA
:102AC00011249F878E87EA88FB88088919894E859B
:102AD0005F856C857D85CC88CE010E9484132C890E
:102AE0008C859D85F6E02F9F800D911D112441C09E
:102AF0006A3079F41D861C864C89FC0136968491D7
:102B00002E853F85489F200D311D11243F872E873C
:102B100067C06D3009F464C0AC014C5F5F4FFA01CF
:102B20003491631708F45CC03196E491E61708F419
:102B300057C0FA014491362F341BFC013296A59000
:102B4000B490F7E03F9FA00CB11C1124F501329620
:102B5000A4913196E491AA2311F0E1110DC0F50181
:102B60003496A4902C898C859D85A29E800D911D04
:102B700011249D878C8734C0F5013596E4913E89F8
:102B8000332309F13C89B0E0AE0FB11DE7FDBA95E2
:102B90003A9FA0013B9F500D11246C857D85460F07
:102BA000571F68857985461757076CF01D861C8668
:102BB000FC01369684914E855F85389F400D511DEE
:102BC00011245F874E87EA88FB88088919894E851A
:102BD0005F856C857D85CC88CE010E948413BFCF34
:102BE00081E090E0DF91CF911F910F91FF90EF90E6
:102BF000CF90BF90AF900895FC0175876487578789
:102C000046870895611101C061E0FC01648B08955D
:102C1000FC01738B628B718B608B0895FC01668B5A
:102C20000895FC01808591850895FC018285938536
:102C30000895EF92FF920F931F93DC01ED91FC91A9
:102C400011971A960D911C911B9718962D913C91F6
:102C500019970684F785E02D7B0140E050E060E0A5
:102C600070E009951F910F91FF90EF900895DC019E
:102C70009096ED91FC91919720819B968C91282BB9
:102C800020830895DC019296ED91FC919397208129
:102C90009C968C91282B20830895EF92FF920F939E
:102CA0001F93CF93DF931F92CDB7DEB77C01062F22
:102CB000142F40EA50E060E870E029830E94CA0CBB
:102CC0008BE093E0F7019183808304A315A329810E
:102CD00026A381E0838F10A617A20F90DF91CF91DA
:102CE0001F910F91FF90EF900895FC01838D81114A
:102CF00022C088E090E030E8A48DB58D21A5432F57
:102D0000462321F04C91422B4C9304C04C912095CA
:102D100024232C93A68DB78D2C9142A5242B2C9384
:102D2000A68DB78D4C9122A5209524232C93369502
:102D3000019711F708956EBD0DB407FEFDCF0895FC
:102D40001F93CF93DF93EC01162F672F0E94751608
:102D5000612FCE01DF91CF911F910C9475166111F7
:102D60000C943716DC019096ED91FC91919720819F
:102D70009B968C9180958223808308951F93CF9397
:102D8000DF93EC01162FEAA1FBA190818CA5809521
:102D90008923808360E0CE010E94AF16612FCE01AF
:102DA0000E947516CE01DF91CF911F910C943716BA
:102DB000662311F061E201C060E20C94BE161F931D
:102DC000CF93DF93EC01162F0E94421660E0CE01F4
:102DD0000E94AF16612FCE010E947516CE01DF91C1
:102DE000CF911F910C9437160F931F93CF93DF93BE
:102DF000EC018B010E94421660E0CE010E94AF16EA
:102E0000B801CE010E94A016CE01DF91CF911F9193
:102E10000F910C943716AF92BF92CF92DF92EF9240
:102E2000FF920F931F93CF93DF937C01EB012196C9
:102E3000FB01B490BB2009F435C0FE016491C701C9
:102E40000E94BE166E01F2E0CF0ED11CFE0131963B
:102E5000C4918C2F8078A82ECF778601DC2FDC0DD3
:102E6000D01741F0F8016491C7010E94DF160F5F8F
:102E70001F4FF6CFC6018C0F911DEC01AA2081F0E7
:102E80008C010F5F1F4FFC01649170E06F3F710573
:102E900011F464EF71E080E090E00E94601AE801B4
:102EA000BA94C8CFDF91CF911F910F91FF90EF900F
:102EB000DF90CF90BF90AF9008950F931F93CF9363
:102EC000DF93EC018B011EA61DA661E08DA10E947F
:102ED000151B61E08CA10E94151B4CA150E0FA016A
:102EE000EF56F94FE491F0E0EE0FFF1FE155F94F77
:102EF0008591949199A388A32DA130E0F901EF5613
:102F0000F94F849190E0880F991F8155994FFC01EA
:102F1000859194919BA38AA3FA01ED58F94F4491AE
:102F20004BA7F901ED58F94F24912CA78B8D8823DD
:102F300079F00E94B1198CB58C7F8CBD8DB58E7FD8
:102F40008DBD8CB58F7D8CBD8CB5837F8CBD3DC018
:102F500061E088A50E94151B61E08FA10E94151BEE
:102F600048A550E0FA01EF56F94FE491F0E0EE0F7A
:102F7000FF1FE155F94FA591B491BF8FAE8F2FA1DF
:102F800030E0F901EF56F94F849190E0880F991FD6
:102F90008155994FFC01859194919D8F8C8FFA01F9
:102FA000ED58F94F44914AA7F901ED58F94F249192
:102FB00029A78C919AA5909589238C93EC8DFD8DF2
:102FC000908189A580958923808360E0CE010E944D
:102FD000AF168EA1882309F161E00E94151B61E004
:102FE0008EA10E944E1B64EF71E080E090E00E9491
:102FF000601A60E08EA10E944E1B64EF71E080E0D9
:1030000090E00E94601A61E08EA10E944E1B64EF66
:1030100071E080E090E00E94601A0115110541F016
:10302000B801CE01DF91CF911F910F910C940B1736
:10303000DF91CF911F910F9108951F93CF93DF934D
:10304000EC01162F6AE176E00E945D17111109C0AC
:103050006DE076E0CE010E940B1782E08DA781E043
:103060000EC0113071F480E890E09B878A8763EF8F
:1030700075E0CE010E940B1782E08DA783E08EA73A
:1030800005C060E076E0CE010E940B1768EC75E0A9
:10309000CE010E940B17123041F466E3CE010E946C
:1030A000BE1660ECCE010E94DF161A8FDF91CF9121
:1030B0001F910895EF92FF920F931F93CF93DF9389
:1030C00000D0CDB7DEB77C01162F6AE229834A8390
:1030D0000E94BE16F70165A570E0610F711DC70162
:1030E0000E94F416F70165A570E02981620F711D39
:1030F000C7010E94F4166BE2C7010E94BE16F701D9
:1031000066A570E04A81640F711DC7010E94F41624
:10311000F70166A570E0600F711DC7010E94F416EB
:103120006CE2C7010F900F90DF91CF911F910F912B
:10313000FF90EF900C94BE16EF92FF920F93CF93F7
:10314000DF93EC01790177FD1CC0888599856817AC
:103150007907BCF457FD15C08A859B854817590728
:1031600084F401E0040F21E0260FCE010E945A18DA
:10317000B701CE01DF91CF910F91FF90EF900C94AA
:10318000F416DF91CF910F91FF90EF900895EF9299
:10319000FF920F931F93CF93DF93EC017B018A0182
:1031A0000E94421660E0CE010E94AF160115110583
:1031B00039F0B701CE010E94A01601501109F6CFD7
:1031C000CE01DF91CF911F910F91FF90EF900C9462
:1031D0003716CF92DF92EF92FF920F931F93CF9308
:1031E000DF93EC0179016801888599856817790773
:1031F00014F58A859B8548175907ECF49A012E0D22
:103200003F1D821793071CF47C01E41AF50A0FEFA7
:10321000040F0E0D262FCE010E945A18A701B601E9
:10322000CE01DF91CF911F910F91FF90EF90DF9032
:10323000CF900C94C718DF91CF911F910F91FF9001
:10324000EF90DF90CF900895CF92DF92EF92FF92B0
:103250000F931F93CF93DF93EC0179016801888569
:1032600099856817790714F52A853B854217530716
:10327000ECF49B012E0D3F1D821793071CF47C017B
:10328000E61AF70A2FEF260F2E0D042FCE010E940B
:103290005A18A701B601CE01DF91CF911F910F916E
:1032A000FF90EF90DF90CF900C94C718DF91CF91F3
:1032B0001F910F91FF90EF90DF90CF900895AF9204
:1032C000BF92CF92DF92EF92FF920F931F93CF9313
:1032D000DF93EC016901580128853985621773076E
:1032E000ACF58A859B854817590784F5FB01EC0DE1
:1032F000FD1D2E173F071CF46901C61AD70A9A0153
:103300002A0D3B1D821793071CF45C01A41AB50A11
:103310000FEF040F0A0D2FEF260F2C0DCE010E9488
:103320005A18CA9CA001CB9C500DDA9C500D112458
:10333000B701CE01DF91CF911F910F91FF90EF90D8
:10334000DF90CF90BF90AF900C94C718DF91CF91D2
:103350001F910F91FF90EF90DF90CF90BF90AF90B3
:103360000895CF93CFB7F89480917B03811127C044
:10337000E2EAF6E08491E4E8F6E09491E82FF0E0E8
:10338000EE0FFF1FE354F94FA591B4918C9189235F
:1033900021F461E081E10E944E1B61E081E10E9425
:1033A000151B8CB580618CBD8CB580648CBD61E0D3
:1033B0008FE00E94151B61E080E10E94151B809147
:1033C0007B038F5F80937B03CFBFCF9108951F92C4
:1033D0000F920FB60F9211242F933F938F939F93C9
:1033E000AF93BF9380917D0390917E03A0917F0363
:1033F000B091800330917C0323E0230F2D3720F41C
:103400000196A11DB11D05C026E8230F0296A11D3E
:10341000B11D20937C0380937D0390937E03A09342
:103420007F03B09380038091810390918203A091E8
:103430008303B09184030196A11DB11D8093810384
:1034400090938203A0938303B0938403BF91AF91C1
:103450009F918F913F912F910F900FBE0F901F90D2
:1034600018952FB7F89460917D0370917E03809139
:103470007F03909180032FBF08953FB7F894809108
:10348000810390918203A0918303B091840326B5B8
:10349000A89B05C02F3F19F00196A11DB11D3FBF8C
:1034A0006627782F892F9A2F620F711D811D911D1C
:1034B00042E0660F771F881F991F4A95D1F708953C
:1034C000CF92DF92EF92FF92CF93DF936B017C015B
:1034D0000E943D1AEB01C114D104E104F10479F01A
:1034E0000E943D1A6C1B7D0B683E7340A0F381E087
:1034F000C81AD108E108F108C851DC4FECCFDF91C0
:10350000CF91FF90EF90DF90CF900895789484B59D
:10351000826084BD84B5816084BD85B5826085BDCF
:1035200085B5816085BDEEE6F0E0808181608083B5
:10353000E1E8F0E010828081826080838081816098
:103540008083E0E8F0E0808181608083E1E9F0E061
:10355000808182608083808181608083E0E9F0E007
:10356000808181608083E1ECF0E0808184608083F1
:10357000808182608083808181608083E3ECF0E0E1
:10358000808181608083E0ECF0E0808182608083D4
:10359000E2ECF0E0808181608083EAE7F0E0808106
:1035A0008460808380818260808380818160808369
:1035B000808180688083089590E0FC013197EE302F
:1035C000F10590F5EA5AFF4F0C94C12580918000D7
:1035D0008F7703C0809180008F7D80938000089555
:1035E00084B58F7702C084B58F7D84BD08958091A6
:1035F00090008F7707C0809190008F7D03C08091ED
:103600009000877F8093900008958091C0008F770D
:1036100003C08091C0008F7D8093C0000895809189
:10362000C200877F8093C2000895CF93DF9390E01C
:10363000FC01ED58F94F2491FC01EF56F94F8491AC
:10364000882349F190E0880F991FFC01E354F94F5A
:10365000A591B4918155994FFC01C591D4919FB723
:10366000611108C0F8948C91209582238C938881F5
:1036700082230AC0623051F4F8948C91322F309535
:1036800083238C938881822B888304C0F8948C9147
:10369000822B8C939FBFDF91CF9108950F931F933F
:1036A000CF93DF931F92CDB7DEB7282F30E0F9011B
:1036B000EB5AF94F8491F901ED58F94F1491F90142
:1036C000EF56F94F04910023C9F0882321F0698354
:1036D0000E94DC1A6981E02FF0E0EE0FFF1FE15538
:1036E000F94FA591B4919FB7F8948C91611103C0E3
:1036F0001095812301C0812B8C939FBF0F90DF9188
:10370000CF911F910F9108950E94C7258091D303F7
:103710009091D4032091D5033091D603821B930B53
:103720008F73992708952091D3033091D40380910A
:10373000D5039091D6032817390749F0E091D503B6
:10374000F091D603ED56FC4F808190E008958FEF05
:103750009FEF08952091D3033091D4038091D50336
:103760009091D60328173907A9F0E091D503F0917D
:10377000D603ED56FC4F80812091D5033091D603BE
:103780002F5F3F4F2F7333273093D6032093D503FA
:1037900090E008958FEF9FEF0895CF93DF93C0914E
:1037A000D303D091D4032196CF73DD278091D50325
:1037B0009091D603C817D90799F082E00E94331F71
:1037C0008F3F2FEF920761F0E091D303F091D40384
:1037D000ED56FC4F8083D093D403C093D303DFCF47
:1037E000DF91CF91089583E00C9497210F931F935D
:1037F000CF93DF931F92CDB7DEB78C0169838091A1
:103800000B01882359F041E050E0BE016F5F7F4F0C
:1038100083E00E94641F181619063CF081E090E0D6
:10382000F8019383828380E090E00F90DF91CF9145
:103830001F910F910895FC0120812E5F208342E4A7
:1038400050E06BEC76E080E80C94FF1FFC01818176
:103850009081913A59F4813209F04BC047E050E031
:1038600064E071E080E00E94FF1F45C0913209F0E2
:1038700040C0803239F467E070E084E091E00E945B
:10388000432039C0823209F034C0828180930B0119
:103890008091040190910501A0910601B09107016A
:1038A000803B9440A105B10531F580910B0180FD6D
:1038B00012C087E797E790930108809300082BE0F8
:1038C00088E190E00FB6F894A895809360000FBE51
:1038D0002093600010C088E10FB6F89480936000D8
:1038E000109260000FBEA895109201081092000877
:1038F00002C080E0089581E0089508951092880341
:103900001092870388EE93E0A0E0B0E080938903F3
:1039100090938A03A0938B03B0938C0383E293E08C
:10392000909386038093850308950E94861A87EDFD
:1039300093E00E94A1210E94670AC0E0D0E00E94AB
:1039400083092097E1F30E940000F9CFCF92DF9224
:10395000EF92FF920F931F93CF93DF936C017A0145
:10396000EB01E60EF71E00E010E0CE15DF0561F07A
:103970006991D601ED91FC910190F081E02DC60195
:103980000995080F191FF1CFC801DF91CF911F9141
:103990000F91FF90EF90DF90CF9008956115710522
:1039A00081F0DB010D900020E9F7AD014150510994
:1039B000461B570BDC01ED91FC910280F381E02D59
:1039C000099480E090E008950C94CE1CDC01ED9108
:1039D000FC910190F081E02D09940F931F93CF93F8
:1039E000DF93EC016DE00E94E61C8C016AE0CE01E1
:1039F0000E94E61C800F911FDF91CF911F910F91C4
:103A000008950F931F93CF93DF93EC010E94CE1C78
:103A10008C01CE010E94ED1C800F911FDF91CF9190
:103A20001F910F9108958F929F92AF92BF92CF9264
:103A3000DF92EF92FF920F931F93CF93DF93CDB757
:103A4000DEB7A1970FB6F894DEBF0FBECDBF7C01E5
:103A5000C42EE52FCB01D22E19A221E02D1510F096
:103A60002AE0D22E8E010F5D1F4F8D2C912CA12CA0
:103A7000B12C6C2D7E2FA50194010E9480258C2DE8
:103A8000D29E80191124015011098A3014F4805DEE
:103A900001C0895CF801808321153105410551057C
:103AA00021F0C22EE32FCA01E4CFB801C7010E9462
:103AB000CE1CA1960FB6F894DEBF0FBECDBFDF912E
:103AC000CF911F910F91FF90EF90DF90CF90BF901B
:103AD000AF909F908F900895CF92DF92EF92FF92D8
:103AE0000F931F93CF93DF93EC016A017B012115A4
:103AF000310579F4E881F9810190F081E02D642F9E
:103B0000DF91CF911F910F91FF90EF90DF90CF90B9
:103B100009942A303105E9F477FF1AC06DE20E945A
:103B2000E61C8C0144275527BA014C195D096E0922
:103B30007F092AE0CE010E94131D800F911FDF91A3
:103B4000CF911F910F91FF90EF90DF90CF9008954C
:103B50002AE0B701A601CE01DF91CF911F910F910D
:103B6000FF90EF90DF90CF900C94131D211531053D
:103B700041F4DC01ED91FC910190F081E02D642F86
:103B800009940C94131D0F931F93CF93DF93EC01B3
:103B90009A01AB0160E070E00E94B61D8C01CE017D
:103BA0000E94ED1C800F911FDF91CF911F910F910B
:103BB00008954F925F926F927F928F929F92AF92F1
:103BC000BF92CF92DF92EF92FF920F931F93CF930A
:103BD000DF93EC016A017B01B22E9A01AB01C701B0
:103BE000B6010E947C25882319F061E373E027C0A9
:103BF00026013701E89477F82FEF3FEF4FE75FE7B3
:103C0000C301B2010E947C2581110DC02FEF3FEF4F
:103C10004FE75FE7C301B2010E94C62318161CF4E8
:103C200065E373E00CC02FEF3FEF4FE75FE4C701A0
:103C3000B6010E9415251816ACF469E373E0CE01B5
:103C4000DF91CF911F910F91FF90EF90DF90CF9078
:103C5000BF90AF909F908F907F906F905F904F90AC
:103C60000C94CE1C2FEF3FEF4FE75FECC701B6017E
:103C70000E94C62387FDE1CF20E030E0A901C70103
:103C8000B6010E94C62387FF0AC06DE2CE010E94E2
:103C9000E61C8C01F7FAF094F7F8F09402C000E00B
:103CA00010E0A12C60E070E080E09FE3AB1441F0F5
:103CB00020E030E040E251E40E94CA23A394F6CF12
:103CC0009B01AC01C701B6010E9462236B017C011C
:103CD0000E9437242B013C010E9463249B01AC010C
:103CE000C701B6010E9461236B017C012AE0B30188
:103CF000A201CE010E94131D080F191FBB2039F02D
:103D000067E571E0CE010E94CE1C080F191F7B2CC5
:103D1000772041F120E030E040E251E4C701B601F4
:103D20000E9419256B017C010E9432244B01AA24B8
:103D300097FCA094BA2C2AE030E0B501A401CE0192
:103D40000E946C1D080F191FC501B4010E94652453
:103D50009B01AC01C701B6010E9461236B017C018C
:103D60007A94D6CFC801DF91CF911F910F91FF9028
:103D7000EF90DF90CF90BF90AF909F908F907F900B
:103D80006F905F904F9008950C94D91D615030F062
:103D90002091F100FC0120830196F8CF289884E659
:103DA0008093DE0308952FB7FC012083F894677099
:103DB0006093E9000895CF93DF931F92CDB7DEB7EC
:103DC000682FCE0101960E94D31E8091F200998146
:103DD0009FBF0F90DF91CF910895FF920F931F9394
:103DE000CF93DF9300D0CDB7DEB7F62E8A01909146
:103DF000DD03992311F057FF03C08FEF9FEF2BC016
:103E0000682FCE0101967A830E94D31E8091F20022
:103E100090E0A8017A81801791070CF4AC01EF2D96
:103E2000F72FF40E84E6FE1639F028988093DE030F
:103E30009091F1009193F7CF4115510521F08091B8
:103E4000F200882321F089818FBFCA0104C08BE66C
:103E50008093E800F8CF0F900F90DF91CF911F91E2
:103E60000F91FF900895CF93DF931F92CDB7DEB7E8
:103E700041E050E0BE016F5F7F4F0E94ED1E019751
:103E800019F4898190E002C08FEF9FEF0F90DF91CE
:103E9000CF910895CF93DF931F92CDB7DEB7682FF0
:103EA000CE0101960E94D31E9091E800892F807266
:103EB00095FF04C09091F20080E4891B99819FBF17
:103EC0000F90DF91CF9108954F925F926F927F9202
:103ED0008F929F92AF92BF92CF92DF92EF92FF921A
:103EE0000F931F93CF93DF931F92CDB7DEB7582E5A
:103EF0007B01A42E952E8091DD03882369F0042F89
:103F0000152F8AEFB82E852D8072782E9AE3892E90
:103F1000852D8074682E11C08FEF9FEF53C0852DC3
:103F20000E944A1F482E81110CC0BA94A9F361E087
:103F300070E080E090E00E94601A0115110579F7A9
:103F400037C0282F30E0021713070CF4402EC42C82
:103F5000D12C0C191D09652DCE0101960E94D31E8E
:103F6000772039F04A948FEF4816B1F01092F100A3
:103F7000F9CFF701842D57FE07C0815058F0949176
:103F80009093F1003196F9CF815020F09191909368
:103F9000F100FACFEC0CFD1C8091E80085FF0FC00A
:103FA0000115110511F461100AC089818FBFC5CFB9
:103FB0005D9884E68093DF038A2D992D03C080925B
:103FC000E800F3CF0F90DF91CF911F910F91FF90F9
:103FD000EF90DF90CF90BF90AF909F908F907F90A9
:103FE0006F905F904F9008951092E9001092DC035B
:103FF0001092DB039093DA038093D9030895CF9353
:10400000DF93FB0120E030E0DEEF24173507A1F15C
:1040100087FF02C0C49101C0C081A091DB03B091B1
:10402000DC036091D9037091DA03A617B707B4F4E3
:104030009091E8009570E1F39091E80092FD1EC028
:10404000C093F1006091DB037091DC036F5F7F4FE1
:104050006F737727672B11F4D093E8006091DB032F
:104060007091DC036F5F7F4F7093DC036093DB0321
:104070002F5F3F4F3196C9CFC90102C08FEF9FEF2D
:10408000DF91CF9108951F93CF93DF931F92CDB708
:10409000DEB7162F2091E80022FFFCCF612F798335
:1040A0000E94C61E8BEF8093E800812F7981972FA5
:1040B0000F90DF91CF911F910895CF93DF931F92BF
:1040C000CDB7DEB71982CE0101960E941B1CCE012E
:1040D00001960E943C22898190E00F90DF91CF9160
:1040E00008951F920F920FB60F921124EF92FF9234
:1040F0000F931F932F933F934F935F936F937F93F0
:104100008F939F93AF93BF93EF93FF93CF93DF93DF
:10411000CDB7DEB76297DEBFCDBF1092E9008091C8
:10412000E80083FFE7C068E0CE010A960E94C61E41
:1041300082EF8093E8009A8597FF05C08091E800A0
:1041400080FFFCCF03C08EEF8093E800892F80763C
:1041500009F0B5C08B85811105C01092F100109255
:10416000F100C1C0282F2D7F213009F4BCC085305B
:1041700049F48091E80080FFFCCF8C8580688093B3
:10418000E300B1C0863009F072C02D85E888F98857
:10419000223071F580E090E02A8B0E94F41F0E948B
:1041A0005D2099E08E010F5F1F4FF801392F1192AA
:1041B0003A95E9F799832A892A8391E09E8390E8CA
:1041C00098879AEF99872091DB033091DC03275F72
:1041D0003F4F3C832B838D83C7010E94F41F49E02E
:1041E00050E0B80180E00E94FF1F0E945D207BC06C
:1041F000C7012A8B0E94F41F2A89223241F482E2ED
:1042000090E00E944722892B09F06DC070C02130D8
:1042100069F488899989089711F42093D8038091CB
:10422000D803882389F062E177E016C0233009F0D3
:104230005EC08C85882359F0823061F0813009F0AE
:1042400056C066E377E008C064E277E005C060E747
:1042500077E002C06EE477E06115710509F447C0AC
:10426000FB01449150E080E80E94FF1F3CC0873072
:1042700009F43DC0883021F481E08093F10033C01F
:10428000893089F5937099F5EEE0F7E081E021E05F
:1042900096E38093E9002093EB0034913093EC0097
:1042A0009093ED008F5F3196853099F78EE780937C
:1042B000EA001092EA008C858093DD0314C088899F
:1042C00099890E94F41F8E85811105C0CE010A963E
:1042D0000E94261C06C0823051F4CE010A960E942C
:1042E0006F22882321F08EEF8093E80003C081E2E3
:1042F0008093EB0062960FB6F894DEBF0FBECDBF81
:10430000DF91CF91FF91EF91BF91AF919F918F91ED
:104310007F916F915F914F913F912F911F910F91DD
:10432000FF90EF900F900FBE0F901F901895809305
:10433000E9008091F200882319F08AE38093E80075
:1043400008951092DD0381E08093D70080EA809386
:10435000D80082E189BD09B400FEFDCF61E070E0C4
:1043600080E090E00E94601A80E98093D8008CE0A1
:104370008093E2001092E000559A209A08951F92CF
:104380000F920FB60F9211242F933F934F935F9389
:104390006F937F938F939F93AF93BF93EF93FF930D
:1043A0008091E1001092E10083FF0FC01092E900BC
:1043B00091E09093EB001092EC0092E39093ED006B
:1043C0001092DD0398E09093F00082FF26C083E016
:1043D0000E94972182E00E94DB1E882321F085E85D
:1043E00093E00E94CD1B8091DF03882339F08091F8
:1043F000DF0381508093DF03882369F08091DE031F
:10440000882359F08091DE0381508093DE0381116F
:1044100004C0289A02C05D9AF1CFFF91EF91BF913D
:10442000AF919F918F917F916F915F914F913F914C
:104430002F910F900FBE0F901F901895FF920F9322
:104440001F93CF93DF93EC01F62EE881F98104806E
:10445000F581E02D09958C01E881F9810680F781CD
:10446000E02D6F2DCE010995C8019927DF91CF91DD
:104470001F910F91FF900895FC0120812F5F2083F1
:1044800049E150E064EF77E080E80C94FF1F49ECCD
:1044900050E06DE078E080E80C94FF1FEF92FF920F
:1044A0000F931F93CF93DF931F92CDB7DEB789830E
:1044B0008B017A0141E050E0BE016F5F7F4F84E0E5
:1044C0000E94641FA701B80184E40E94641F0F903A
:1044D000DF91CF911F910F91FF90EF900895FC0114
:1044E00091818081813A31F481E0913091F0933073
:1044F00089F411C0813271F49B3021F48281809360
:104500000D0105C09A3031F4828180930C0181E065
:104510000895089580E0089548E050E082E00C940A
:104520004E22CF93DF93DC01683818F0E8E7E60FFE
:1045300025C0E62FF0E067FF11C0E058F10981E0E7
:1045400090E001C0880FEA95EAF714969C911497C1
:10455000982B14969C931497E0E010C0EC58F84FF9
:10456000E491EE2309F440C0E7FF08C014968C9153
:104570001497826014968C931497EF7716968C910B
:1045800016978E1741F117968C9117978E1719F180
:1045900018968C9118978E17F1F019968C9119979F
:1045A0008E17C9F01A968C911A978E17A1F01B9648
:1045B0008C911B978E1779F080E090E0ED01C80F89
:1045C000D91F2E81211102C0EE8305C001968630CD
:1045D0009105A1F709C0BD016C5F7F4FCD010E941D
:1045E0008C2281E090E008C081E090E013969C93DB
:1045F0008E93129780E090E0DF91CF910895683814
:1046000018F0E8E7E60F25C0E62FF0E067FF12C0DC
:10461000E058F10921E030E001C0220FEA95EAF705
:104620002095DC0114963C911497322314963C9308
:10463000E0E00FC0EC58F84FE491EE2329F1E7FFDA
:1046400008C0DC0114962C9114972D7F14962C939E
:10465000EF7720E030E0EE2351F0DC01A20FB31F32
:1046600016964C9116974E1302C016961C922F5F09
:104670003F4F2630310579F7BC016C5F7F4F0E94B8
:104680008C2281E090E0089580E090E00895FC01A4
:104690001682178210861186128613861482BC0138
:1046A0006C5F7F4F0C948C221092EC031092E3030A
:1046B0001092E20381E493E09093E1038093E0039E
:1046C00008955058BB27AA270ED075C166D130F087
:1046D0006BD120F031F49F3F11F41EF45BC10EF456
:1046E000E095E7FB51C1E92F77D180F3BA17620754
:1046F00073078407950718F071F49EF58FC10EF4C7
:10470000E0950B2EBA2FA02D0B01B90190010C01E1
:10471000CA01A0011124FF27591B99F0593F50F4F9
:10472000503E68F11A16F040A22F232F342F442751
:10473000585FF3CF469537952795A795F040539549
:10474000C9F77EF41F16BA0B620B730B840BBAF019
:104750009150A1F0FF0FBB1F661F771F881FC2F784
:104760000EC0BA0F621F731F841F48F48795779598
:104770006795B795F7959E3F08F0B3CF9395880F4F
:1047800008F09927EE0F979587950895D9D008F4EA
:1047900081E008950CD00FC107D140F0FED030F079
:1047A00021F45F3F19F0F0C0511139C1F3C014D1A9
:1047B00098F39923C9F35523B1F3951B550BBB27E8
:1047C000AA2762177307840738F09F5F5F4F220F95
:1047D000331F441FAA1FA9F333D00E2E3AF0E0E88E
:1047E00030D091505040E695001CCAF729D0FE2FDA
:1047F00027D0660F771F881FBB1F2617370748076C
:10480000AB07B0E809F0BB0B802DBF01FF27935821
:104810005F4F2AF09E3F510568F0B6C000C15F3F70
:10482000ECF3983EDCF3869577956795B795F79509
:104830009F5FC9F7880F911D9695879597F9089501
:10484000E1E0660F771F881FBB1F6217730784079D
:10485000BA0720F0621B730B840BBA0BEE1F88F7AC
:10486000E095089504D06894B111D9C00895BCD0E2
:1048700088F09F5790F0B92F9927B751A0F0D1F049
:10488000660F771F881F991F1AF0BA95C9F712C0D3
:10489000B13081F0C3D0B1E00895C0C0672F782F48
:1048A0008827B85F39F0B93FCCF38695779567953F
:1048B000B395D9F73EF490958095709561957F4FAB
:1048C0008F4F9F4F0895E89409C097FB3EF4909551
:1048D0008095709561957F4F8F4F9F4F9923A9F0D9
:1048E000F92F96E9BB279395F69587957795679568
:1048F000B795F111F8CFFAF4BB0F11F460FF1BC0AC
:104900006F5F7F4F8F4F9F4F16C0882311F096E93E
:1049100011C0772321F09EE8872F762F05C06623EC
:1049200071F096E8862F70E060E02AF09A95660FA5
:10493000771F881FDAF7880F9695879597F908955E
:10494000990F0008550FAA0BE0E8FEEF16161706A0
:10495000E807F907C0F012161306E407F50798F008
:10496000621B730B840B950B39F40A2661F0232B21
:10497000242B252B21F408950A2609F4A140A6959D
:104980008FEF811D811D089597F99F6780E870E082
:1049900060E008959FEF80EC089500240A941616B5
:1049A000170618060906089500240A94121613061D
:1049B000140605060895092E0394000C11F48823AB
:1049C00052F0BB0F40F4BF2B11F460FF04C06F5FC7
:1049D0007F4F8F4F9F4F089557FD9058440F551F9D
:1049E00059F05F3F71F04795880F97FB991F61F071
:1049F0009F3F79F087950895121613061406551FE8
:104A0000F2CF4695F1DF08C0161617061806991F53
:104A1000F1CF86957105610508940895E894BB2748
:104A200066277727CB0197F908958ADF08F48FEF7F
:104A300008950BD0C0CFB1DF28F0B6DF18F0952372
:104A400009F0A2CFA7CF1124EACFC6DFA0F3959F2C
:104A5000D1F3950F50E0551F629FF001729FBB2765
:104A6000F00DB11D639FAA27F00DB11DAA1F649F11
:104A70006627B00DA11D661F829F2227B00DA11DC4
:104A8000621F739FB00DA11D621F839FA00D611D4A
:104A9000221F749F3327A00D611D231F849F600D6B
:104AA000211D822F762F6A2F11249F5750408AF0A4
:104AB000E1F088234AF0EE0FFF1FBB1F661F771F30
:104AC000881F91505040A9F79E3F510570F05CCF70
:104AD000A6CF5F3FECF3983EDCF38695779567951C
:104AE000B795F795E7959F5FC1F7FE2B880F911D4E
:104AF0009695879597F9089523DF880B990B08956C
:104B0000A1E21A2EAA1BBB1BFD010DC0AA1FBB1FD1
:104B1000EE1FFF1FA217B307E407F50720F0A21B43
:104B2000B30BE40BF50B661F771F881F991F1A94B0
:104B300069F760957095809590959B01AC01BD01DA
:104B4000CF010895052E97FB1EF400940E94B9250D
:104B500057FD07D00E94802507FC03D04EF40C942B
:104B6000B92550954095309521953F4F4F4F5F4F58
:104B7000089590958095709561957F4F8F4F9F4FC9
:104B80000895EE0FFF1F0590F491E02D099481E048
:0C4B900090E0F8940C94CC25F894FFCF32
:104B9C00DA0F494000E10000000000000101486507
:104BAC006C6C6F20576F726C6421002057616E74AF
:104BBC002070693F00205072696E7420484558215E
:104BCC0000536B6574636820686173206265656E61
:104BDC000072756E6E696E6720666F723A200020E7
:104BEC007365636F6E64732E0048656C6C6F212067
:104BFC00535437373335205446542054657374005E
:104C0C00496E697469616C697A6564004C6F726590
:104C1C006D20697073756D20646F6C6F7220736991
:104C2C007420616D65742C20636F6E73656374659D
:104C3C007475722061646970697363696E6720654D
:104C4C006C69742E2043757261626974757220618F
:104C5C00646970697363696E6720616E7465207333
:104C6C006564206E6962682074696E636964756E30
:104C7C007420666575676961742E204D6165636586
:104C8C006E617320656E696D206D617373612C208C
:104C9C006672696E67696C6C6120736564206D6106
:104CAC006C6573756164612065742C206D616C6535
:104CBC0073756164612073697420616D657420740F
:104CCC0075727069732E2053656420706F727474E2
:104CDC0069746F72206E6571756520757420616ED4
:104CEC007465207072657469756D20766974616580
:104CFC00206D616C657375616461206E756E6320E7
:104D0C00626962656E64756D2E204E756C6C616D9A
:104D1C0020616C697175657420756C74726963655A
:104D2C0073206D617373612065752068656E6472A4
:104D3C00657269742E20557420736564206E6973D6
:104D4C0069206C6F72656D2E20496E2076657374C8
:104D5C006962756C756D2070757275732061207445
:104D6C006F72746F7220696D7065726469657420FE
:104D7C00706F73756572652E2000646F6E65000030
:104D8C000000002615A61C841B430B490C600CFA72
:104D9C000B760CAB0CC90C000000002615A61C9C55
:104DAC0018430BE9182419FA0B5F191916D81600B9
:104DBC00000000F61BA61C861BAA1B931BF31BCD25
:104DCC001B6E616E00696E66006F766600000000F7
:0C4DDC00001E22A61C9122FF224723008B
:00000001FF
